:1000000040120020510A0000A74700003D0A0000EE
:100010003D0A00003D0A00003D0A0000000000000B
:10002000000000000000000000000000250B0000A0
:100030003D0A000000000000C10A00003D0A000067
:10004000D10C0000D10C0000D10C0000D10C00003C
:10005000D10C0000D10C0000D10C0000D10C00002C
:10006000D10C0000D10C0000D10C0000D10C00001C
:10007000D10C0000D10C0000D10C0000D10C00000C
:10008000D10C0000D10C0000D10C0000D10C0000FC
:10009000D10C0000D10C0000D10C0000D10C0000EC
:1000A000D10C0000D10C0000D10C0000D10C0000DC
:1000B000D10C0000D10C0000D10C0000D10C0000CC
:1000C000D10C0000D10C0000D10C0000D10C0000BC
:1000D000D10C0000D10C0000D10C0000D10C0000AC
:1000E000D10C0000D10C0000D10C0000D10C00009C
:1000F000D10C0000D10C0000D10C0000D10C00008C
:1001000010B5104B88B000228DF8070018688DF8E4
:1001100010200DF1070302930123CDE9051303938A
:1001200007238DF81C309DF81C30826843F00203D1
:100130008DF81C3094683923022202A9A04708B028
:1001400010BD00BF000000201FB503460C4A8DF80B
:100150000030022310688DF80110CDF804D002930E
:100160008DF80C309DF80C30826843F002038DF856
:100170000C3094683923012201A9A04704B010BDB6
:100180000000002073B5394B186804F02AFE0446BD
:10019000002864D003218020FFF7D6FF00218C20A7
:1001A000FFF7D2FFFF218320FFF7CEFF03218F202F
:1001B000FFF7CAFFFF218120FFF7C6FF2C4C2D4D12
:1001C0002D4E0DF102019720FFF79AFF0DF103016B
:1001D0009620FFF795FF01A99920FFF791FF0DF1F8
:1001E00005019820FFF78CFF0DF106019B20FFF71A
:1001F00087FF0DF107019A20FFF782FF9DF802307B
:100200009DF8031041EA032109B2204604F0DEF90B
:100210009DF804309DF8051041EA032109B22846F3
:1002200004F0D4F99DF807309DF80610304643EAF3
:10023000011104F0CBF90DF101019220FFF760FFED
:10024000014650B99DF801100C4804F0BFF9002197
:100250004FF4004004F056FEB3E70948F5E70948BB
:1002600004F0B4F9204602B070BD00BF00000020C9
:100270005E55000067550000725500007C55000077
:100280008855000048550000014B1B68184700BF07
:1002900004000020014B1860704700BF04000020DC
:1002A00030B585B004460D4610220021684604F0A2
:1002B0009BFE02238DF802302A46044B019321460F
:1002C000684603F0BBFE05B030BD00BF89020000E8
:1002D00080B505460E461746984603F027FC0346B0
:1002E00004F0FEFEDFF81890044649F8003042465C
:1002F00030463946A84754F8090000F0CBFB00BF50
:10030000080000002DE9F047058B044628079046B9
:1003100011D4022905F0070540F0CC80204604F0F6
:1003200062F978B10138218B042811D8DFE800F098
:10033000C2106D85950001290CBF45F0100545F0F0
:100340002005258388F31188BFF36F8FBDE8F08700
:1003500001F0070AAA4500F0A5800027B9463E46ED
:10036000A368002B00F0BC8041F00801218388F3D2
:100370001188BFF36F8FA168002900F0BA800D6863
:10038000002900F0B680D1F804803346524620465A
:10039000C047002D76D02B6829461D46F0E701F0B6
:1003A00007035A1F012A1BD8002221F00701062B40
:1003B000276889B2C4E9002209D13B4603E0628B79
:1003C000013262831B68002BF9D141F002012183C5
:1003D000204604F008F900287AD041F0200176E0A8
:1003E000042B0AD121F0070189B22183204604F0B1
:1003F000FAF810B141F020012183218B01F0070AA6
:10040000AA454FD00027B946AAE7236921F0070182
:1004100041F00601062DD3F8009021832DD1B9F1CA
:10042000000F3FD041F00801218388F31188BFF30A
:100430006F8F3A492046C84729E021F00701236918
:1004400041F0040189B2042DD3F804902183E6D051
:1004500000273E464FF0040A82E721F00701236996
:1004600041F0050189B2052DD3F808902183D6D03B
:1004700000273E464FF0050A72E700273E464FF040
:10048000060A6DE72B4687E7B9F1000FD1D1EFF3EC
:100490001188202383F31288BFF36F8F238B23F0FF
:1004A00008032383258BEA062ED525F0100323832A
:1004B00005F007056669218B002EBFF670AF00239B
:1004C0002768C4E9003321F0070141F001012183CD
:1004D000218B01F0070AAA454FF000097FF440AFD5
:1004E000002F9CD041F00801218388F31188BFF3CD
:1004F0006F8F002FC8D03D6839463346524620469C
:1005000004F09DF82F46F4E7AB067FF51BAF25F00E
:100510002003238305F0070500E700BF6B460000BA
:10052000014B0360002070470854000008B50348E1
:10053000034A0021121A04F02EF908BD60000020C1
:10054000740400200748084A084908B5121A04F044
:1005500024F90748074A0849BDE80840121A04F080
:100560001CB900BF00000020600000206C5A000091
:1005700000000020000000206C5A000038B505463D
:100580000C4699B1D1E901230F48096804F01EF81F
:10059000D4E90423E1680D4804F018F8E1690C4837
:1005A00004F014F8A1690B4804F010F8012D05D1EE
:1005B000EFF305810848103904F008F82146284671
:1005C000BDE8384002F08ABE9D550000CD550000C0
:1005D000FD5500000D5600003C56000030BFFFF7EF
:1005E000FDBF00BF2DE9F0410B4EDFF8308006EB78
:1005F0000807CC1B054632460949204604F0E6FCB4
:10060000A01942460021083C04F0EEFCC5F8A440C5
:1006100007F10800BDE8F0810000000004000000C0
:10062000FC530000054B5A699B689A421FBF044A5D
:10063000536843F080535360704700BF3C04002070
:1006400000ED00E02DE9F843324D804632488946FE
:10065000174603F0BBFFAB6ADE0622D52F4803F036
:10066000B5FF1124AB6A1D0703D52D4803F0AEFF7B
:100670001224284DAB6A980715D52A4803F0A6FF27
:100680006E6BAB6A190642D52748314603F09EFFD0
:10069000B9F1000F03D0AB6A23F08003AB621324DF
:1006A00003E01024DEE76FF015061A4DAB6ADA0797
:1006B00003D51E4803F08AFF1424AB6A9B0603D5BA
:1006C0001B4803F083FF1524124B9A6AD50602D407
:1006D0009A6A90070AD55B68190507D541463046E6
:1006E00000F0ACFA10B180F309880224094B9A6A31
:1006F000920642BF5A6A22F400525A629A6A42F043
:10070000FF029A6200233B702046BDE8F8836FF039
:100710001506C4E700ED00E05056000067560000E3
:100720009B560000AF560000C8560000DF56000080
:10073000FF56000010B51D4C1D4803F047FFA36A8B
:10074000990130D51B4803F041FF1E20A36ADA014E
:1007500003D5194803F03AFF1F20144CA36A1B036A
:1007600003D5164803F032FF2120A36A590303D5AD
:10077000134803F02BFF22200C4CA36A9A0303D5E5
:10078000104803F023FF2320A36ADB0303D50E48A0
:1007900003F01CFF2420054A936A6FEA03436FEAC3
:1007A0001343936210BD1D20D0E700BF00ED00E0B1
:1007B0002F570000485700005C5700007757000093
:1007C00096570000BC570000D757000070B5244C66
:1007D000064624480D4603F0F9FEA36AD90435D530
:1007E000214803F0F3FE1720A36A1A0503D51F481A
:1007F00003F0ECFE18201A4CA36A9B050FD51C4889
:1008000003F0E4FEA16BA36A180407D5194803F0AE
:10081000DDFE1EB1A36A23F40043A3621920104C2D
:10082000A36A590503D5144803F0D0FE1A20A36A21
:10083000DA050DD5114803F0C9FE1B20084A936A5A
:1008400043F47F43936200232B7070BD1620CBE7E7
:10085000A36A9B04F2D50A4803F0B8FE1C20EDE71A
:1008600000ED00E0035800001A5800009B560000FD
:100870002C580000465800005C58000078580000D2
:10088000FF5600002DE9F0415B4B5F688AB00446DB
:10089000C7F30806002585F31188BFF36F8F02F0B8
:1008A0007F43B3F17F4F06D102F00C03082B13D125
:1008B000524803F08BFE00252C464FF00008F31E33
:1008C0008DF80780092B00F28680DFE803F00A7AB2
:1008D0007E7684848484848210074CBF0C46012574
:1008E000EBE74748444E03F071FE8DF80780F36A4A
:1008F0009A0704D5434803F069FE002330E0F36A09
:10090000002B01DA4048F6E7F36A5B00F5D53F4873
:1009100003F05CFE7369A26943F480737361BFF3F3
:100920004F8FBFF36F8F736932F8022C23F48073FB
:100930007361BFF34F8FBFF36F8F4DF602739A420F
:1009400009D0B36ADBB253B30DF10702012120468F
:10095000FFF778FE33E021682D4803F037FE236867
:100960009DF80720C2B902AE04F120072068616833
:10097000324603C20834BC421646F7D1099AB5B3D1
:10098000C2F3080121B96FEA52226FEA42220992AA
:1009900002A91846FFF7F2FD0AB0BDE8F081B36A7C
:1009A00013F47F4F05D00DF107010120FFF70EFF73
:1009B00005E0B36AB3F5803F9FD3FFF7BBFE034664
:1009C000CEE70DF107020021C1E70DF1070100207C
:1009D000ECE710488FE7104B1049114817F4F87FE7
:1009E000A6F1100218BF194603F0F0FD85E722F4C6
:1009F000FF7222F00102CAE700ED00E0BF580000DC
:100A0000EB5800000359000025590000345900003C
:100A10005459000071590000A65800009158000078
:100A200096590000044B5A6942F010025A615A6903
:100A300022F008025A61704700ED00E0EFF30880F1
:100A4000EFF3098101B57246FFF71CFF01BD00BF3E
:100A50000D4880F3088800200C49087001F020FB45
:100A6000202080F311880A484FF40461401880F375
:100A70000988EFF314800221084380F31488BFF340
:100A80006F8F00F0A3F80000401200206F040020D8
:100A900080040020084B9B6883420BD1EFF3058351
:100AA00043B1064B5A6842F080525A605A6A22F4A7
:100AB00000425A6203F040B83C04002000ED00E020
:100AC00015498A684FF030001044EFF3098C80E834
:100AD000F01F202080F31288BFF36F8F0F4F4FF06D
:100AE00000664A698A603E60D2F8A4000C4C20601F
:100AF000D2F8A8000023C2F8A83080F3118804B50A
:100B0000104600F003F9BDE8044002F1300090E81F
:100B1000F01F8CF3098870473C04002004ED00E0CE
:100B2000B00200201EF0040F0CBFEFF30880EFF3BB
:100B30000980816911F8021C0229FFD001B57246B3
:100B400003F02DFE01BD00BF40B2002807DB044AC0
:100B50004109012300F01F00834042F82130704713
:100B600000E100E0054B420900F01F0053F822208D
:100B7000012303FA00F01040704700BF00E100E0DD
:100B800040B20028A8BF00F1604001F10101B8BFE8
:100B9000064B4FEA4111ACBF00F5614000F00F0079
:100BA000C9B2B4BF195480F80013704714ED00E0C7
:100BB000044B054A23F07F039360BFF34F8FBFF3CD
:100BC0006F8F70470000000000ED00E008B5FFF7F0
:100BD000EFFF0B4AD2F8883023F47003C2F8883054
:100BE000EFF3148323F0040383F31488BFF36F8FB0
:100BF000FFF79CFCFFF7A6FC00F05EF802F03AFC61
:100C000000ED00E042F8203C009B42F81C3C0A4901
:100C1000019B42F8183C029B42F8143C21F0010170
:100C20004FF0807342F8043C42F8081C0023203A3D
:100C30000265C0F8A8307047D10200000A4A034696
:100C4000906878B113F1160FD0F8940005D0A0F198
:100C500040029A4205D8834203D2814228BF002035
:100C600070470020704700BF3C04002008B51546BF
:100C70000C4A0D4B9060D0F8A4201A600E4600F08C
:100C800045F82C4686F309880020044B98472046F7
:100C9000002100220023024C20470000C34700002F
:100CA000D10200003C040020B0020020014B1022C1
:100CB0001A61704700ED00E0044800232021C218AB
:100CC0000133302B82F80013F9D1704700E100E0C6
:100CD00008B5EFF30583064A103B02EBC30152F857
:100CE000330049688847BDE80840FFF79BBC00BF58
:100CF000D4510000024B034A0348012100F078B8A8
:100D0000000004200000002008540000D0F89420C7
:100D1000054B403A1A60054A4021C3E901121846C2
:100D2000012100F06FB800BFB402002000000B15D5
:100D3000084AC2F898000B6823F01F03034343F0EE
:100D40001003C2F89C308B6843F00103C2F8A03056
:100D5000704700BF00ED00E02DE9F043DFF8608050
:100D600085B00E461F4604464FF00009B14523DA10
:100D70006068D8B13FB1411E08421BD11F2819D964
:100D80002368194216D12368019303F03DFDA3683F
:100D900003430393D8F89050C5F30725D0B2013D23
:100DA000A84207D801A9FFF7C3FF421C09F10109B6
:100DB0000C34DBE76FF01502104605B0BDE8F08398
:100DC00000ED00E0044B0522C3F89420BFF34F8FE1
:100DD000BFF36F8F704700BF00ED00E0BFF35F8F80
:100DE000024B0022C3F89420704700BF00ED00E0E2
:100DF00010B5034C01232278FFF7AEFF207010BD21
:100E00006C04002008B50B4A00231278FFF7A4FFFA
:100E100010F1160F07D0084A0021D2F89030C3F322
:100E20000723984200DB08BDC2F89800C2F8A01062
:100E30000130F2E76C04002000ED00E02DE9F04302
:100E4000534B544CD3F890302568C3F307239D428D
:100E500085B000F29A80FFF7C1FF00200C26854282
:100E60001AD14D4C4D4F25706846FFF759FBDFF8FE
:100E70002081DFF82C9106460025AE4213D123785D
:100E800043490020D1F89020C2F30722934276DB39
:100E9000FFF798FF002042E0616806FB0011FFF7B2
:100EA00047FF0130DBE7009800EB05114FEA051C16
:100EB000CB683B40B3F5000F48D00AD8B3F5001F0C
:100EC00030D0B3F5800F36D0B3F5801F10D0013588
:100ED000D3E7B3F1807F42D0B3F1007FF7D150F870
:100EE0000C3088684A6803F08FFC40F4802009E0E9
:100EF00050F80C3088684A6803F086FC40F088504F
:100F000040F43020CDE901230390D8F890302078C8
:100F1000C3F30723013B98422AD96FF0150005B0AF
:100F2000BDE8F08350F80C3088684A6803F06CFC28
:100F300040EA0900E6E750F80C3088684A6803F098
:100F400063FC40F0C06040F40030DBE750F80C3048
:100F500088684A6803F058FC40F08270D2E750F885
:100F60000C3088684A6803F04FFC40F08870C9E78D
:100F700001A9FFF7DDFE237801332370A7E7C1F84D
:100F80009830C1F8A00001337CE74FF0FF30C6E78E
:100F900000ED00E0145400006C0400200000F0FF9D
:100FA0000000081108B5024B1B689847002008BDD7
:100FB000C0020020034B044A1860937843F00203F8
:100FC00093707047C00200200800002008B5064951
:100FD000064821F00701C1F1005202F5802203F01A
:100FE000B6FA002008BD00BF87120020C40200200E
:100FF0000E4A0123C2F840354FF080424FF0805135
:10100000C2F87835D1F83001082808D1D1F8341168
:10101000052904D80648415C09B1C2F838364FF0BA
:1010200080430122C3F880250020704700E0014082
:10103000B959000020B1034B800143F00103184768
:10104000704700BF00540000084B70B5C31A0D462E
:1010500007499B10044659430648402203F0F2FB1F
:101060002B4601462046BDE870401847E4020020A8
:10107000B76DDBB63451000073B50C4C0C4A4023FD
:10108000041B00930D460B460A49A4106143064613
:10109000094803F003FC011E05DA30462B4602B076
:1010A000BDE87040184702B070BD00BFE4020020E8
:1010B00007490000B76DDBB63451000010B5EFF3FF
:1010C0001184202383F31288BFF36F8F074A1368BC
:1010D00023F00201DB07116002D4012003F03EFD82
:1010E00084F31188BFF36F8F10BD00BF340300205D
:1010F000002270B5012104461046FFF741FD0F485C
:1011000001F058F90E4B984215D101F063F92669A8
:101110000C49304603F0B6FA00280BDB0125356494
:101120002469084904F11C0003F0ACFA002801DB33
:10113000E564002070BD6FF00400FBE74112000081
:101140000000AD0B345400001FB500220123CDE98F
:101150000223094ACDF800D06B46CDF804D003F045
:10116000CBFB002805DB4FF480420023684602F0E9
:101170001BFA05B05DF804FB2549000030B4104BA4
:101180000C2202FB003301460020D3E90E52986383
:10119000EFF31180202484F31288BFF36F8F1C6C4F
:1011A00004F0C00444F002041C6480F31188BFF30F
:1011B0006F8F1DB12B46034830BC184730BC7047B9
:1011C000E40200203451000010B4EFF31182202318
:1011D00083F31288BFF36F8F1748016841F0020450
:1011E0000460C80707D482F31188BFF36F8F012012
:1011F00010BC01F001B94FF08041D1F80C04D1F8D6
:101200000C14C907EFD5EFF3118083F31288BFF3F5
:101210006F8F0A490B6C03F0C00343F002030B64A9
:1012200080F31188BFF36F8F82F31188BFF36F8F44
:10123000002010BCFFF7A2BF34030020E40200200E
:1012400010B1012804D07047034B1B6C5B0701D120
:10125000FFF794BF704700BFE40200202DE9F04182
:101260003849BFF35B8F0746012251E8003F41E850
:1012700000200028F9D1BFF35B8F33B932493348DE
:101280004B60CB608A6003F010FA7B1E012B2BD8D9
:10129000012F07D14FF08043D3F81C3403F0030330
:1012A000012B21D003F0BEFD0546F8B9284B1B7871
:1012B000E3B14FF080430222C3F808230646DFF86B
:1012C00094804FF08044D4F81824D4F81834D20312
:1012D00015D503F00303012B01D0012F0FD155B316
:1012E00086F31188BFF36F8FBDE8F081EFF31186AD
:1012F000202383F31288BFF36F8F0125DFE7ADB1A1
:10130000304603F072FAD4F81835002BDBD1D4F84C
:101310000421002AD7D0C4F80431D4F804310123C1
:10132000C4F81835C8F88031A360CCE7002121202B
:1013300003F0E8FDE7E74FF080430222C3F80423FF
:10134000D2E700BFE0020020D0020020000300200E
:101350006F04002000E100E008B5074803F041FDFC
:1013600038B10648FFF726FE0448FEF793FF002039
:1013700008BD6FF01200FBE79451000081130000DC
:101380000A2838B5074D044604D1AB680D215B68C7
:1013900028469847AB6803485B68E1B29847204607
:1013A00038BD00BF94510000F0B516464268107B6E
:1013B00001F01F0444EA4014106987B0002872D07D
:1013C000B6F5001F02F1100506D12146284603F0AC
:1013D00045FC002007B0F0BD01A80027B6F5800F3E
:1013E0000197476039D1B3F1007F14BF052304236F
:1013F0008DF804300023CDE904030393936823FAA6
:1014000001F111F001010DF103073ED1B6F1A07F0A
:101410003BD104F01F03620903F5E07328D0012AD1
:1014200047D1254A52F82330DB072ED43A462146CD
:10143000284601F0CBFA214B98421CD0029703AA10
:101440002146284601F082F91D4B98422ED10122F7
:101450002146284601F012FBBBE7B3F1C06F05D06F
:10146000B3F1007F14BF01230223C1E70323BFE7C9
:101470004FF0A042D6E73946284601F0F7FA104B64
:101480009842DBD06FF00B00A4E73A46214628468D
:1014900001F09CFA0A4B9842D1D19DF803102846DE
:1014A00001F0DCFACBE76FF0850093E76FF01500F1
:1014B00090E751F82330FFDE000300500400AD0B2D
:1014C0000000AD0B420970B5034602D0012A17D0C7
:1014D00070BD0D4E326951680029F9D003F01F0329
:1014E00001250C689D400029F2D08A682A4002D06C
:1014F0004B68304698472CB1236821461C46F2E7DA
:10150000024EE7E72346F8E774510000545100000B
:1015100038B545682B69B3B11035284601F094FA07
:10152000044680B90146284601F06AFA084B984201
:101530000BD108492246284601F042FA22460521ED
:101540000620FFF71DFB002038BD6FF00400FBE70D
:101550000000AD0BC51400002DE9F043466840F2D1
:101560000635D006337B87B002EA050554BFC2F3C7
:101570004010032001F01F07B5F5837F144647EAAA
:1015800043178DF8030045D00FD8062D18D007D883
:10159000B5B1022D40D06FF0150007B0BDE8F08363
:1015A000B5F5807FF7D101250AE040F2022295428D
:1015B00034D0B5F5407F33D0B5F5007FEBD10225AF
:1015C0000123220303FA01F12CD57368C3F808152F
:1015D000326982BB07F01F037F0929D0012F77D121
:1015E0003E4A02EB830284F48033D2F80017C3F33F
:1015F0000043C4F3404444EA430421F4E16144EA73
:10160000800421F0070144EA05230B43C2F80037A8
:101610000020C2E70725D3E70425D1E70525CFE75A
:101620000325CDE7630344BF7368C3F80C15CFE708
:101630004FF0A042D5E710360DF102023946304690
:1016400001F0C4F914F4403F80460CD139463046CD
:1016500003F002FB224B9845DAD19DF80210304688
:1016600001F0FCF9D4E701AB4FF0000903AA3946B9
:101670003046CDE90439CDE90199CDF80C9001F05F
:1016800065F8174B984286D114F4003315D09DF8B5
:1016900003308DF80E3084F48034C4F300444B469C
:1016A00003AA394630468DF80C508DF80D4001F0F4
:1016B00009F90B4B9842CDD06DE7CDE9043303AA6D
:1016C0000DF1030339463046039301F03FF8F0E78C
:1016D00003F5E07352F82330FFDE00BF0003005033
:1016E0000000AD0B02780B69012A08D0022A08D04D
:1016F0004AB9064A5A6203F1140001F021BF044AB4
:10170000F8E7044AF6E7044AF4E700BF0000AD0B2F
:101710000100AE0B0200AE0B0100AD0B2DE9F04F46
:10172000D0F81090D0F8048085B005460C461746D6
:10173000029309F1040A4FF0FF324FF0FF33504695
:1017400001F032FF09F1140B00230022584601F08A
:101750002BFF404601F03EFC7B1E00260393B74260
:1017600001D8002322E0039B217AB34283BF237D6B
:1017700083F00403C3F3800300230193029B0093CF
:10178000D4E90023284600F04DF8034670B94FF421
:1017900080420023584601F007FF98B1404601F00F
:1017A00029FC284600F02CF86FF004034046029311
:1017B00001F020FC504601F0C3FE029B184605B024
:1017C000BDE8F08FD9F82430034A934204F10C04A9
:1017D000EAD10136C3E700BF0000AD0B08B50346F0
:1017E0004068826900F1080101F0B0FB034B9842A8
:1017F00014BF6FF00F00002008BD00BF0000AD0B4C
:1018000008B543681B68D3F80805D3F80C1501F038
:10181000F7FC034B984214BF6FF00F00002008BD87
:101820000000AD0B2DE9F04186B00C4647689DF8ED
:1018300034801546002112220DF106001E4603F0E9
:10184000D3FBBDF830208DF8052004F0010314F01F
:1018500008028DF804300296049519D1A10704D42A
:10186000B8F1000F12D19BB9202201A9384601F02E
:10187000DDFB0A4B98420ED00B3398420CBF6FF041
:101880000F006FF0040006B0BDE8F0814022ECE7E5
:101890006FF08500F7E70020F5E700BF0000AD0B13
:1018A000036803F01F025B09026004D0012B0348A8
:1018B00018BF002070474FF0A04070470003005051
:1018C0002DE9F04FDFF8B4B185B01546824600EB44
:1018D000810840F2FF19D04503D1002005B0BDE8D2
:1018E000F08FDAF800305804C3F3C321C3F30804BF
:1018F00000F1BD80624A4C45515C4FEA136312D03F
:10190000222B1ED94E2B40F0B580C5F8144503A8F4
:101910000394FFF7C5FF039B012606FA03F3C0F803
:101920000835374654E0222B09D94E2B40F0A280CF
:101930004FF0FF33C5F814350AF1040ACBE74FF036
:10194000FF34222B00F29680DFE803F012171D20EF
:101950002329209494949439639494949494949423
:101960009494667174779494947A8285888B8E00AF
:10197000C5F80C45631CCAD1DEE7C5F81445621CE6
:10198000DAD00026CDE7C5F80845F3E7C5F81045DD
:10199000F5E7631CC5F80845CED0002604E0671CB7
:1019A000C5F80C45C8D0012603A80394FFF778FFBB
:1019B000039B012707FA03F3C0F80C3508E0C5F8CC
:1019C00008450029DBD1661CB6D000263746062123
:1019D000DAF80030019303F40040002803A81CBF8C
:1019E000002701260394FFF75BFF039C019B00EB9C
:1019F0008400C3F3412CD0F800470B0243EA8C0368
:101A00003B4304EA0B04234343EA4603C0F8003790
:101A100092E7C5F80C45D4E7C5F86045601CDAF8D4
:101A2000003089D0C3F30043002BBCD06FE7C5F86A
:101A30006445F3E7C5F86845F0E7C5F86C45EDE7A0
:101A4000C5F82445621C3FF477AF00270126BFE7A5
:101A5000C5F828458EE7C5F83045F3E7C5F83445A5
:101A6000F0E7C5F83845EDE7C5F83C4582E76FF08B
:101A7000150033E76FF0850030E700BFF0F8FCFF9A
:101A8000F75900002DE9F041044647680D4603F080
:101A9000C9F988B14FF02008EFF31186314688F379
:101AA0001288BFF36F8F606802F0FAFF50BB86F3B5
:101AB0001188BFF36F8FEFE71F4B1B78002BE9D026
:101AC0004FF020086426606802F0EAFF70B9012038
:101AD00003F036F8013EF6D10021212003F012FA7E
:101AE000F0E786F31188BFF36F8FF5E7EFF3118608
:101AF000314688F31288BFF36F8F606802F0D0FF21
:101B00000028EED0BB691D706368BA691B680020AD
:101B1000C3F844250122C3F84825C3F82001D3F8AF
:101B20002041C3F85801D3F858019A6081F3118815
:101B3000BFF36F8FBDE8F0816F040020F8B500227D
:101B4000054601210220FFF71BF80220FEF7FCFFEB
:101B50006C680121E06802F0D4FF6B681A682369A1
:101B6000C2F82435617D237D0B43A17D0B43C2F870
:101B70006C356E68D6E9004313F001033CD02F6941
:101B800007F1080002F0E8FF2A4B98424ED1387A5C
:101B900004F10C0204F5907102F0D4FF387A0127A9
:101BA00007FA00F000F09EFB0823C4F80035B36983
:101BB000C4F844350023C4F84835A760D4F8583138
:101BC000002BFBD00021C4F800156D682C68E86874
:101BD00002F097FF0823C4F800352A7A52B9EB695E
:101BE000C4F834350123C4F83835C4F81021D4F8CA
:101BF000102123600020F8BD0822C4F80025B26936
:101C0000C4F84425C4F848350123A360D4F8203132
:101C1000002BFBD00023C4F82031D4F8203101235D
:101C2000E3604FF48073C4F80433C7E76FF0040037
:101C3000E1E700BF0000AD0B70B5012383400E4A01
:101C4000BFF35B8FDC4352E8001F01EA040542E862
:101C50000056002EF7D1BFF35B8F4FF480328240E5
:101C60000648C0F80823BFF35F8FBFF36F8F0B42A6
:101C700014BF0120002070BD60030020001001404F
:101C800070B40E49D1E90034D01AC31844F10004ED
:101C900022F07F46C1E90034A6F50013B3F5400FEA
:101CA00009D2074B1B681A0A1B069C19054B42F107
:101CB0000005C3E9004570BC02F042B97000002085
:101CC000640300207800002011B3BFF35B8F012371
:101CD000104A834052E800CF4CEA030C42E800C1AE
:101CE0000029F7D1BFF35B8F0B4A4FF48033834059
:101CF000C2F80433094BBFF35B8F1B68BFF35B8FE4
:101D0000C340DB0742BF064B4FF40032C3F800214B
:101D1000704700BF60030020001001405C030020FA
:101D200000E100E00D4B1868010A0006BFF35F8F69
:101D30000B4BD3F80435181841F10001B3F5801F9F
:101D40000AD2084BD3E90023904271EB030303D27C
:101D500010F1807041F10001704700BF6403002062
:101D600000100140780000202DE9F04F85B01646A4
:101D70001F469DF840A00446FFF75EFF0190FFF765
:101D8000D1FFB04271EB070354D23E4B301A67EBE0
:101D90000101984271F100014FD23B4B03EB041358
:101DA000D3E902239F4208BF96425ED037494FF4E1
:101DB000803804F1500508FA04F8AD00C1F84883F2
:101DC0002046ADB202F0AFFE26F07F4B05F1804514
:101DD00004F5A87305F58835DC464FF00309029336
:101DE000029A2CF07F4341F82230C1F84483D1F8A5
:101DF0000435274A6FF00200C01A604420F07F408B
:101E0000904232D9286868B1D1F804350393A3EB26
:101E10000B0020F07F40B0F5000F26D9204602F0DD
:101E200082FE039BBAF1000F07D109EB030C09F105
:101E30000109D5E7BAF1000F09D06FF0150520466A
:101E40000199FFF741FF284605B0BDE8F08F012357
:101E5000104ABFF35B8FA34052E8000F184342E8DB
:101E600000010029F8D1BFF35B8F07490E982301C9
:101E700001EB0412C8500F9B5360C2E902670025B2
:101E8000DDE700BF0100800060000020001001407D
:101E9000FDFF7F005C0300207FB51C4C1C4BC4F889
:101EA0000833C4F848331B4B00254FF0FF304FF088
:101EB000FF31C4F80855C3E902014FF48033C4F878
:101EC0000433154B02264FF400320121C4F8046399
:101ED0001120C3F880212A46FEF752FE1120FEF79A
:101EE00033FE0E4A0123A360236013600C4B0D4A9E
:101EF0000093CDE9015500232846FFF735FF304612
:101F0000FFF7ACF9284604B070BD00BF00100140D7
:101F100003000F006000002000E100E060030020EB
:101F2000811C0000FFFF7F002DE9F7432F4CD4F800
:101F3000043399070BD5D4F8043143B12C4A00235C
:101F4000C4F80431D4F80431136801331360D4F8B1
:101F50000433DA0329D5BFF35B8F264B53E8002FF8
:101F600022F0010143E800100028F7D1BFF35B8F96
:101F7000D30702D4D4F84031BBB10025C4F8405196
:101F8000D4F84031FFF7CEFEEFF31182202383F324
:101F90001288BFF36F8F184BD3E90267B042B94183
:101FA00006D282F31188BFF36F8F03B0BDE8F083D0
:101FB0004FF0FF384FF0FF39C3E90289D3E9001031
:101FC0001D604FF48033C4F84833C4F84051D4F84E
:101FD000403182F31188BFF36F8F0029E5D0009064
:101FE00032463B4628468847DFE700BF00100140E5
:101FF000640300205C0300206000002030B5431C17
:10200000124C85B005D08442A8BF0446012CB8BF4D
:102010000124FFF787FE0E4B0C4DD3E90013401A45
:10202000B0F5000F10D22218AA4228BF2A46521833
:102030004FF0000007490091CDE9010043F1000392
:10204000FFF792FE05B030BD2A46F0E7FFFF7F00A4
:1020500070000020811C000008B5FFF763FE024BF2
:102060001B68C01A08BD00BF700000204FF08053ED
:10207000D3F83021082A06D1D3F83431052B02D801
:10208000024AD05C70470020704700BF135A00001E
:10209000024AD2F80034002BFBD0704700E0014028
:1020A00010B54FF08053D3F83021082A4ED14FF0AD
:1020B00080420021C2F80C11C2F81011C2F8381584
:1020C00002F54042D3F80414C2F82015D3F80814DE
:1020D000C2F82415D3F80C14C2F82815D3F810143C
:1020E000C2F82C15D3F81414C2F83015D3F818140C
:1020F000C2F83415D3F81C14C2F84015D3F82014D4
:10210000C2F84415D3F82414C2F84815D3F828149B
:10211000C2F84C15D3F82C14C2F85015D3F830146B
:10212000C2F85415D3F83414C2F86015D3F8381433
:10213000C2F86415D3F83C14C2F86815D3F84014FB
:10214000C2F86C15D3F84434C2F87035FFF78EFF2F
:1021500018B13A4B3A4AC3F88C26FFF787FF18B1FB
:10216000384BFB22C3F81825FFF780FF70B14FF002
:1021700080414FF08053D1F8E42ED3F8583222F04A
:102180000F0203F00F031343C1F8E43EFFF76EFFA5
:1021900020B12D4B4FF40072C3F840264FF080530E
:1021A000D3F83031082B1AD14FF08043D3F80024F4
:1021B000D20744BF6FF00102C3F800244FF08053F0
:1021C000D3F83431052B02D8204AD35C3BB14FF011
:1021D0001023D3F808224FF08043C3F858254FF05E
:1021E0001023D3F80022002A03DBD3F80432002B9B
:1021F00022DA174901234FF01020C1F804351224C8
:10220000FFF746FFC0F80042FFF742FFC0F8044264
:10221000FFF73EFF0023C1F80435FFF739FFBFF396
:102220004F8F0C490C4BCA6802F4E0621343CB6039
:10223000BFF34F8F00BFFDE710BD00BF005000404F
:102240004881030000F00040009002400D5A000059
:1022500000E0014000ED00E00400FA0530B504683C
:10226000CCB1BFF35B8FB4FA84F3C3F11F03DBB2CD
:1022700001229A4024EA020250E8005FA54204D1FC
:1022800040E8002CBCF1000FF6D1BFF35B8FE6D124
:1022900002480B7030BD0248FCE700BF0000AD0BE8
:1022A0000200AD0B10B50368CB40DB0714D401234B
:1022B0008B400268BFF35B8F43EA020150E8004F96
:1022C000944204D140E8001CBCF1000FF6D1BFF3EA
:1022D0005B8FEED1014810BD0148FCE70000AD0B5B
:1022E0000400AD0B014BC3F80405704700F001403A
:1022F000F7B50546F8B101281BD104224FF48073CD
:1023000001464FF0804003440244C0F80813002601
:10231000012111601E608D421B688DF8071008BFF7
:102320000DF1070642F210744FF0804745B1012DC0
:1023300029D003B0F0BD0C224FF482730221E0E7F4
:10234000D7F8183403F4803366B9002BF1D001209C
:1023500002F0F6FB013CF3D1EBE702F0F1FB013CAC
:10236000E4D1E6E7D7F8182402F003023260002B2C
:10237000DFD09DF807000128EFD0012DD9D10C4BFB
:1023800000225A71D5E7D7F80C3403F480333EB9F4
:10239000002BF4D0012002F0D3FB013CF3D1C8E7BD
:1023A000D7F80C2402F001023270002BE1D1E6E7ED
:1023B00068030020044B1A7922B9012218609A8020
:1023C0000248704702487047680300200000AD0BC8
:1023D0000C00AD0B08B5074B1B682BB10020FEF7B6
:1023E000C1FB08B9FEF7B0FB4FF080430022C3F8F1
:1023F000182508BD6803002010B510B1012843D08E
:1024000010BD4FF08043D3F81814D3F81824C80334
:1024100021D502F00303012B04D013B10020FFF7F4
:1024200067FF00234FF080420220C2F818350822CF
:102430004FF4827303F180430021196002F180425E
:102440001C6801241460154A12680AB34FF08043D7
:10245000C3F80403D4E7D3F81424D107E1D5D3F8A3
:102460001C249207DAD40D4A12681AB10222C3F86A
:102470000423C5E7D3F80421002AFBD00022C3F8C7
:102480000421D3F80431BBE700224FF48073D1E775
:102490001A68002AFCD019601B68B1E768030020A5
:1024A000F8B54FF080431C4ED3F8044301250027B4
:1024B00004B9F8BDB4FA84F0C0F11F00830003F53D
:1024C00080739BB203F1804305FA00F2196892B25F
:1024D00024EA02040029EBD01F601B684FF0804300
:1024E000012AC3F8082305D0022A08D03368C0B2F5
:1024F0009847DDE77379002BDAD17271F6E7D3F8EC
:102500001814D3F818148907F0D1C3F81855C3F874
:1025100004239D60CCE700BF68030020036803F03C
:102520001F025B09026004D0012B034818BF002082
:1025300070474FF0A040704700030050034A430922
:1025400000F01F00D35C1844C0B27047195A000055
:1025500070B50546FFF7F2FF0C4C08300E4634F814
:102560001030DA0508D5C3F3432304EBC302284631
:1025700054F8333052689847A3682BB1E26831466B
:102580002846BDE87040184770BD00BF70030020AA
:1025900008B5FFF7D3FF034B083033F81000400BAA
:1025A00008BD00BF7003002008B5FFF7C7FF034B4D
:1025B000083033F81000C0F3400008BD700300205D
:1025C00008B5FFF7BBFF034B083033F81000C0F32A
:1025D000401008BD70030020034611F0010010B543
:1025E000CCB20DD1A207C4F3400012D5094AD2F8EB
:1025F00020055860C2F82005003818BF012008E007
:102600004FF0A041D1F820251A60C1F82025002AFA
:10261000E8D010BD0003005010B5FFF78FFF124A3D
:10262000083032F81030D9051CD5C3F3432123F408
:10263000F85322F8103002F10E04002034F8023F63
:1026400013F4807F03D0C3F3432399420AD00130AF
:102650003028F3D1002342F831300448BDE810405F
:10266000FFF720BE10BD00BF70030020E80300206C
:1026700001F18051F0B501F5C2510446114A002024
:102680008900012506468A420BD10F4BD3F87C21E5
:1026900032B10022C3F87C21D3F87C3140F00040F5
:1026A000F0BD02F14043A3F5C2439B0805FA03F3D2
:1026B0001C4204D0176817B116601768184304321B
:1026C000E1E700BF0061004000600040F7B506464A
:1026D0000846FFF733FF194F00F108050C4637F89D
:1026E0001530DB0727D5304602F092FA2046FFF777
:1026F00067FF40B12046FFF74BFF316800F5A2703D
:10270000002341F820302046FFF786FF002301A870
:1027100027F815300194FFF701FF019B00EB8300C0
:10272000074BD0F80027134043F00203C0F80037EE
:10273000044803B0F0BD0448FBE700BF700300206D
:10274000F0F8FCFF0000AD0B0400AD0B2DE9FF41DC
:10275000164680460846FFF7F1FE0C4631680546EE
:1027600009B32046FFF720FF18B12046FFF728FFE6
:1027700010BB0023CDE900338DF80E308DF80F30FB
:102780000DF10F020B4620460DF10E0102F0E8F9A3
:10279000484A05F1080132F8113023F0020343F0F2
:1027A000010322F8113073685BB320461F78596823
:1027B000FFF7FAFE10B1C9B13F4825E03D4A05F1E7
:1027C000080C32F81C3023F02003DB04DB0C22F869
:1027D0001C3059B1032FEFD87168D8F80000496850
:1027E0000978A7B901F5A27140F82170314A05F1C5
:1027F000080132F8113023F01C0343EA870322F862
:102800001130B3686BBB2D4804B0BDE8F08100EB1C
:10281000810043EA4133D0F810E52EF0030EC0F8F2
:1028200010E5D8F8000000EB810E43F02003DEF83D
:10283000100522F81C3020F44F3020F44070CEF800
:1028400010052002DEF8108500F47C5040EA0740B5
:1028500040EA0800CEF8100502EB4100A0F87C40E9
:10286000C4E7D3E900672046FFF7D6FE002ECAD0A2
:10287000104CD4E90023964203D19F4201D100229B
:1028800009E00F480DF10F01FFF7E8FC0B4B9842F0
:10289000BAD19DF80F2044F8326004EBC20308352A
:1028A0005F6034F8153043EA422343F4807324F820
:1028B0001530A8E7700300200400AD0B0000AD0B3D
:1028C000E80300202DE9F0430C4685B08046204601
:1028D00011461E46FFF732FE054629B32046FFF794
:1028E00063FE18B92046FFF76BFE18BB314F05F1A8
:1028F000080937F8193013F01C0F02D04B78012B60
:1029000018D001238DF80F300023CDE900134A1CA5
:102910008B1C20460DF10F0102F022F937F8193017
:1029200043F0030327F81930002E41D02046FFF76B
:102930003BFE18B9204805B0BDE8F08396F800C00A
:10294000D8F800301B4F0CF5A272002143F822107A
:1029500005F1080237F8121021F02001C904C90C52
:1029600027F8121075781DB3D8F80000B67800EB80
:102970008C002D04D0F8103523F4991323F4F85368
:10298000C0F81035230203F47C5305F440353605B6
:10299000D0F810E52B4306F4801641EA4C3133435E
:1029A00041F0200143EA0E0327F81210C0F8103559
:1029B0000248C0E7700300200400AD0B0000AD0B1F
:1029C000014BC3E9021270477003002010B508469E
:1029D0001446FFF7F5FD50B10846FFF7AFFD054B74
:1029E000083033F8103004485B0B237010BD0348E7
:1029F000FCE700BF700300200000AD0B0400AD0B2E
:102A000070B50E4C94F88C500646A5B96022294644
:102A100004F1100002F0E8FA3068C0F87C51D0F8F8
:102A20007C3140F30730FEF78FF80123044884F827
:102A30008C30A36770BD0348FCE700BF7003002023
:102A40000000AD0B0C00AD0B034B93F88C0000386D
:102A500018BF0120704700BF700300200079024BAF
:102A600003EB8000FFF71EBC400000200079024B02
:102A700003EB8000FFF7F2BB40000020F7B50546EE
:102A800008461646FFF79CFD0C462968F0B1204623
:102A9000FFF78AFD0746C8B92046FFF779FD04B263
:102AA000A40004F580728F508A5829682144D1F817
:102AB000102542F00102C1F810252EB1296801222B
:102AC00002FA00F3C1F8043303B0F0BDD1F80433C7
:102AD000002BA4BF4FF00043C1F804332046FFF79A
:102AE0002DFD0F4B083033F81030C3F38203042B55
:102AF00012D0052B12D001A80194FFF70FFD019A07
:102B0000D0F81035D34003F00103991C204603B0E0
:102B1000BDE8F04002F06DB80321F7E70221F5E7C8
:102B2000700300202DE9F04F654BD3F80403C0B2C9
:102B300087B0082140F00040FFF79AFD051E2BDA10
:102B40000023032104A8CDE90433FFF745FDDFF896
:102B500074A10DF110084FF000094FF0010B1AF8A5
:102B6000013B5949DA0803F007038A5C22FA03F3B0
:102B7000DA071CD408F10408B9F1000F14D00021C1
:102B80004FF00040FFF774FD032104A8FFF724FD78
:102B90000028DCD125F00045494E4C4F0124002D82
:102BA00078D107B0BDE8F08F4FF00109D7E7484B67
:102BB0004B440093D8F800100029DBD0009B91FA19
:102BC000A1F11C78B1FA81F141EA44142046FFF7E3
:102BD000B5FC3E4B0394083033F81070C80801F080
:102BE000070118F800200BFA01F122EA0102BB08E4
:102BF00008F8002003A80193FFF790FC039A019BBB
:102C000002F5E072C7F3820650F822205B073746D0
:102C1000C2F3014223D520463946D6B2FFF798FCCD
:102C200003A80394FFF77AFC039B03F5E07350F8C5
:102C30002330C3F301439E4207D10021204601F017
:102C4000D8FF3146204601F0D4FF03A80394FFF7D4
:102C500065FC039B0BFA03F3C0F82035AAE7022AB0
:102C60000CD10321204601F0C4FF06F00503012B1F
:102C7000EBD139462046FFF76BFCE6E70221204600
:102C8000019201F0B6FF032EF3D0019A032ADCD1A2
:102C9000022EEDE795FAA5F3B3FA83F304FA03F2F3
:102CA00025EA020503F5A27207EB430356F822104A
:102CB000B3F87C00C1F30141FFF74AFC6FE700BFA6
:102CC00000600040295A00002C55000070030020CD
:102CD000295A000001460148FFF7C0BA440000200D
:102CE00030B500F01F04400911D0012812D10C4862
:102CF00000EB84001B02D0F800570A4C43EA820222
:102D00002C4042EA41012143C0F8001730BD4FF08A
:102D1000A040EDE704F5E074002353F82430FFDE13
:102D200000030050F0F8FCFFCB7B10B433B9D1E9BD
:102D300000420368C3F80845C3F80C2503688A6895
:102D4000C3F8242503793C225343054AD3582BB1B9
:102D5000006810BC40F30730FDF7F6BE10BC7047AA
:102D60000004002013B53B4B01930023C0F804314D
:102D7000D0F80421C0F82431D0F82421C0F81C3147
:102D8000D0F81C21C0F80831D0F80821C0F8003272
:102D90004B6381F82F300123036291F82D209A4272
:102DA00018BF83604B6B8A6A934204460ED24A6A0C
:102DB000D35CC0F81C350B6803B340F286238B60EC
:102DC0008B682548C4F8043302B010BD91F82C304C
:102DD00013B10123C361EEE70B6A13F0400F4FF00C
:102DE000010316BFC361436181F82D30E3E720463C
:102DF00001F036FF28B1019B013B0193019B002BA1
:102E0000F5DC91F82F305BB91348019B002BDBDC1C
:102E10000023C4F8003505231048C4F80035D3E773
:102E2000D4F8C434C4F8C4348BB10D4A0B4813F041
:102E3000010F18BF104613F0020F02F1010218BF74
:102E4000104613F0040F074B18BF1846DDE7034880
:102E5000DBE700BFA08601000000AD0B0100AD0B59
:102E60000000AE0B0200AE0B13B5334B01930023F1
:102E7000C0F80431D0F80421C0F82431D0F824215E
:102E8000C0F81C31D0F81C21C0F80831D0F8082156
:102E90004B6381F82F308B6A012B044617D10B6AE4
:102EA0005B0614D40223C4F800320123236291F894
:102EB0002D20022A18BF23600B688BB140F28623B5
:102EC0008B608B681D48C4F8043302B010BD012329
:102ED000E9E7204601F0C4FE28B1019B013B0193C4
:102EE000019B002BF5DC91F82F305BB91348019B57
:102EF000002BEADC0023C4F8003505231048C4F891
:102F00000035E2E7D4F8C434C4F8C4348BB10D4AB8
:102F10000B4813F0010F18BF104613F0020F02F117
:102F2000010218BF104613F0040F074B18BF1846D4
:102F3000DDE70348DBE700BFA08601000000AD0B22
:102F40000100AD0B0000AE0B0200AE0B2DE9F84303
:102F500090F804901C4E07463C2000FB09F0351801
:102F60000C4695F82E1061BBA96032506B6085F855
:102F70002D1085F8311085F83010CCB1637B85F8C1
:102F8000383094F80E8085F83980B8F1000F0BD1F5
:102F90002068062303224146FFF7A2FE606806234D
:102FA00003224146FFF79CFE21463846FFF7BCFE50
:102FB0003C2303FB09660548012386F82E30BDE853
:102FC000F8830348FBE700BF000400200000AD0BBE
:102FD0000C00AD0B036802790521C3F80015044B02
:102FE0003C2101FB0233022283F82E20704700BFF0
:102FF0000004002003680B4A0179C3F80823D3F8C2
:10300000002222F00302C3F800220022C3F80025A8
:10301000054B3C2000FB0133012183F82E1083F87F
:103020003020704786420400000400202DE9F0475C
:10303000314F0479D0F800903C2303FB04730D4614
:1030400093F82D30012B944604D10B78012B06D137
:103050002A4811E0022B02D10B78012BF8D13C2633
:10306000274BC9F8083306FB047696F830302BB1AD
:10307000B3682448C9F80433BDE8F0878CF0040332
:10308000C3F3800386F83030C6F820C0A846B8E8FD
:103090000F0006F10C0EAEE80F00D8F80030CEF8A5
:1030A00000306B68B362EB6873626B78C9F888357F
:1030B0002B78C4EB041A012B07EB8A0A17D09BB9B3
:1030C000CCF3401C3C2303FB04735146484683F871
:1030D0002CC0FFF747FE3C235C433A193B59002BB9
:1030E000CAD182F83030C7E74FF0010CEAE7514609
:1030F0004846FFF7B9FEEEE7000400200500AD0BDF
:10310000864204000B00AD0BF0B5324C324887B05C
:10311000214601F0A5FD002859D194F82F70FFB980
:10312000227B931E012B1BD8606AA369984217D19A
:10313000E36963626369A362236A274884F82D7098
:10314000C3F34013032A84F82C3004D107B0BDE840
:10315000F040FFF707BE07B0BDE8F040FFF784BEC0
:103160001E4E0FCE01AD0FC533682B6047B31A4A10
:10317000D2F8C434C2F8C43413F0020106D00123DB
:103180008DF80030002384F8303007E013F004029B
:1031900009D002238DF8003084F83010D4E90031D2
:1031A0006846984713E013F0010305D003238DF818
:1031B000003084F83020F1E704228DF80020E2E7A7
:1031C000236A8DF800705B0784F83070E6D507B08D
:1031D000F0BD00BF00040020003000400C040020BF
:1031E000036803F01F025B09026004D0012B03484F
:1031F00018BF002070474FF0A040704700030050F8
:10320000F7B5064601F0C4FD084601F0C1FD01A86E
:103210000196FFF7E5FF019B2E4D00EB83000C4666
:10322000D0F80037019440F20D612B400B43C0F8F9
:10323000003701A8FFF7D4FF019B00EB83000127B3
:10324000D0F800372B400B43C0F80037042001F0C2
:1032500077FC092501A80194FFF7C2FF019AD0F875
:103260001035D340DB0715D401A80196FFF7B8FF4E
:10327000019B07FA03F3C0F80C35042001F060FC51
:10328000304601F085FD013D042001F059FC15F0A8
:10329000FF05DFD101A80194FFF7A2FF019A0123E6
:1032A0009340C0F80C35042001F04AFC204601F0A0
:1032B0006FFD042001F044FC01A80194FFF790FF8A
:1032C000019AD0F810350448D34003F00103C01A26
:1032D00003B0F0BDF0F8FCFF0100AD0B38B5EFF323
:1032E0001185202383F31288BFF36F8F064B9C68F0
:1032F00001F08AFD85F31188BFF36F8F2046BDE88A
:103300003840FDF7C7BB00BF3C04002038B50A4B6E
:1033100053F82040013053F82050A54200D838BD62
:10332000606830B1037FDB0701D401F042FD08344F
:10333000F3E723689847FAE73055000070B52A4B49
:103340002A4C2B4D012286B003201A70FFF7DEFFB6
:1033500000F06EFE0420FFF7D9FF2646AE4204F1CE
:10336000300410D300F0EEFA204C224EAC4226D3AB
:1033700000F0FCFAFCF706FF1F4A137B23F0010361
:10338000137306B070BD54F80C3C059354F8103C10
:10339000049354F8143C039354F8183C029354F8E3
:1033A0001C3C019354F8203C009354E90A2354E94F
:1033B0000C0100F01FF954F8303C5E65CDE7D4E90C
:1033C0000A23B3F1FF3F08BFB2F1FF3F05D052EA35
:1033D0000301206803D100F085FB3034C6E7314695
:1033E000183000F01DFDF8E76F0400205453000072
:1033F00054530000FD4E00003001002070B5174E00
:10340000174D184986B0B02303FB0066164B059391
:1034100001220F23CDE903320023CDE90133142328
:1034200003FB005504464FF4C07000FB04110F4B22
:1034300000954FF4A072304600F0DCF8737B0C4A24
:10344000EE6023F0040373734FF4046304FB03334F
:1034500013442C746B6006B070BD00BF8000002068
:103460003C040020C00C00202B5A00000F4E00002E
:1034700080040020BFB50020FFF748FF284B83F3EE
:103480000888284C284F636943F400736361002562
:10349000E02384F82230E57725766576A57684F8F2
:1034A0002050636A43F4E023636284F82350FDF7FD
:1034B000B9FAFDF7FBFB4FF0FF33A362E362FDF7C0
:1034C000BDFCFDF717FC1948194C00F009F9012063
:1034D000FFF71CFF0220FFF719FF00F07BFA154BE6
:1034E00015495C61154B05930123CDE903534FF456
:1034F00080623B46CDE901550095204600F07AF800
:10350000627B064622F004022046627301F0CAFC88
:103510002846FFF773FF3A4631462046FDF7A6FBE3
:10352000C00C002000ED00E03D330000E001002071
:10353000300100203C040020400E0020305A0000E2
:1035400070B5EFF31186202383F31288BFF36F8FDA
:103550000468A0421BD0D4B1D4E9003213605A6091
:10356000637B002523F002036373C4E90055A56063
:1035700004F1180001F0FEFC2046C4F8AC5001F044
:1035800091FC31460748BDE8704000F0B5B9D0E97C
:1035900002329A4218BF0133836086F31188BFF369
:1035A0006F8F70BD7004002013B5EFF311812024DC
:1035B00084F31288BFF36F8F846844B1013C846048
:1035C00081F31188BFF36F8F002002B010BD52EA63
:1035D000030406D181F31188BFF36F8F6FF00F00E2
:1035E000F3E7CDE900230246014800F063F9ECE778
:1035F000700400202DE9F04F073285B022F0070259
:1036000004461E467F3200F15803C0E9163322F00B
:103610003F02129B237300200D46119BDDF838A05A
:10362000139FA06004213F2AC4E906006173A373BD
:10363000E07305F14009A2F1400B05D880F3118831
:10364000BFF36F8F084602DF05EB020841462046B4
:10365000FCF7C8FF0730109B20F00700C4E9259B4A
:10366000C4F89C0002930F9BA8EB000BCDE900A3CC
:103670005A46334629462046FDF7C4FA0F9BA366F7
:103680004FF00008109BC4F85480C4E9186AE36640
:10369000EFF31182202181F31288BFF36F8F0F4D5A
:1036A000296A21672C6282F31188BFF36F8F8FB173
:1036B0001F22394604F1740001F09EFC84F89380C7
:1036C000AB680BB1D3F8A030C4F8A030584605B0B1
:1036D000BDE8F08F84F87470F2E700BF3C0400206E
:1036E00040F2011383810023C0E92533C0F8A030E4
:1036F000014B9860704700BF3C0400200A4A936861
:103700006FF00A01C3F8AC100849C3F8A8004B6871
:1037100043F080534B60002383F31188BFF36F8F16
:103720009368D3F8AC0070473C04002000ED00E043
:1037300070B590F90D20437B002A36DBD90634D1D1
:103740001B4C63F07F032246437352F8183FE16934
:10375000934207D1C0E900210860E06111E099427D
:10376000F8D01B68002BF5D090F90E5093F90E603D
:10377000B542F4D0AE42F2DD5968C0E900310860CC
:103780005860A569954200D005B9E568A3685A7BE1
:10379000D20604D1DA897F2A01D9AA6932B1AB42B3
:1037A00002D0284600F098FA656170BD6361FCE7BD
:1037B0003C04002038B590F90D20437B002A0146D7
:1037C00004DA03F07F03437301F032FB0D4D2A4608
:1037D000AB6852F8184F944200D004B9EC688B42A1
:1037E00007D05A7BD20604D1DA897F2A01D9A2698F
:1037F0002AB1A34202D0204600F06EFA23466B6144
:1038000038BD00BF3C040020B3F1FF3F08BFB2F158
:10381000FF3F03D00249183000F002BB704700BFE1
:10382000FD4E000070B590F90D20437B002A014643
:1038300004DA03F07F03437301F0FAFA4B7B1C4C6C
:1038400063F07F0322464B7352F8183FE0699342BE
:1038500007D1C1E900200160E16111E09842F8D090
:103860001B68002BF5D091F90E5093F90E60B5420C
:10387000F4D0AE42F2DD5868C1E900300160596011
:10388000A569A368954200D005B9E5688B4207D0C9
:103890005A7BD20604D1DA897F2A01D9AA692AB1D2
:1038A000AB4202D0284600F017FA2B46636170BD88
:1038B0003C040020F8B50E4B0C4611460D4A9868A2
:1038C0001060DDE90667EFF31182202282F312888F
:1038D000BFF36F8F9D68284601F0BCFA2846324638
:1038E0003B46FFF791FF2046BDE8F840FFF706BFD3
:1038F0003C0400206004002049B9EFF3058030B992
:10390000054B5A699B689A4201D0FFF7F7BE81F3D5
:103910001188BFF36F8F70473C040020034648B9FD
:10392000EFF3058232B9064A51699268914201D09B
:10393000FFF7E4BE83F31188BFF36F8F704700BFBA
:103940003C040020EFF31181202383F31288BFF39E
:103950006F8F054B9A68D37B013BD37381F311883A
:10396000BFF36F8F704700BF3C04002070B5EFF3CA
:103970001186202383F31288BFF36F8F144DAB6839
:10398000DA7B0132DA732A4652F8184F944200D09B
:1039900004B9EC685A7BD20604D1DA897F2A01D9AE
:1039A000A2692AB1A34202D0204600F095F923462D
:1039B0006B6186F31188BFF36F8FEFF311802023C3
:1039C00083F31288BFF36F8FBDE87040FFF7A6BF87
:1039D0003C040020024B03F11802C3E906227047A1
:1039E0003C04002070B5EFF31186202383F3128886
:1039F000BFF36F8F1B4CA168E0690B68814214BF55
:103A00001A46002249680B605960A368E1692AB927
:103A1000154AC3E900210B60E3610CE093F90E0045
:103A200092F90E50A84218D0854216DD5168C3E9BC
:103A300000210B605360A5690B4B9D4200D005B976
:103A4000E568A3689D4202D0284600F045F965610B
:103A50003046BDE87040FFF751BE8A42D8D01268A8
:103A6000D5E700BF3C04002054040020F8B550EA1C
:103A7000010306460C4603D1FFF7B4FF0020F8BD52
:103A8000EFF31187202383F31288BFF36F8F124D5A
:103A9000124BA8681860FFF78DFEA86810492346EE
:103AA0003246183000F0BCF9AA68537B43F0040397
:103AB000537304463846FFF721FEAB68D3E90A2367
:103AC000B3F1004F08BF002AD8D101F07BFA201AC9
:103AD00020EAE070D3E700BF3C040020600400202F
:103AE000FD4E000038B50446EFF31185202383F323
:103AF0001288BFF36F8F437B5B070FD5183001F03F
:103B000039FA637B23F0040320466373FFF710FE4A
:103B100029460548BDE83840FFF7EEBE85F3118819
:103B2000BFF36F8F38BD00BF70040020014B986851
:103B3000704700BF3C0400202DE9F8430446077B92
:103B4000EFF31185202383F31288BFF36F8F437B3C
:103B5000190705D585F31188BFF36F8FBDE8F8838A
:103B6000D90943F0080260D14273A36813B120461B
:103B700001F066F904F1180001F0FCF9A66D04F1FA
:103B80005808B04511D04FF0000976B1304601F029
:103B900057F906F1180001F0EDF9C6F8AC9030467F
:103BA000FFF7C6FDA66DB045EFD1DFF8C480D8F8A9
:103BB00008309C4241D1EFF30589B9F1000918BFE3
:103BC0004FF00109D8F818602A4A964200D00EB981
:103BD000D8F80C60B34202D0304600F07DF82046A1
:103BE000C8F8146000F0EAFD204600F0CDF8B9F105
:103BF000000F02D02048FFF773FDD8F808309C4230
:103C000031D1EFF3058373BB227BD20718D428464A
:103C1000FFF774FDFB07A1D5002383F31188BFF3E1
:103C20006F8F0423184602DF98E703F07F0343F009
:103C30000803437301F0FCF897E74FF00009C1E770
:103C400085F31188BFF36F8F83F31188BFF36F8FF4
:103C50000423184602DFEFF31180202383F3128838
:103C6000BFF36F8FD4E785F31188BFF36F8FD1E770
:103C70003C04002054040020E0010020044BC01A42
:103C8000044BC0105843044B01221A54704700BF24
:103C900090020020ABAAAAAA70040020C3897F2B3F
:103CA00012D80A4B1B6863B1094B90F90E201B68B0
:103CB0009A4209DB437BDB0606D1064BC31A18BFC9
:103CC000012303F0010070470023FAE748000020B9
:103CD000640400208000002070B50E4B0E4C1E7C4A
:103CE00006EB460304EBC3040546204601F042F907
:103CF0000A4B002228469A55FFF7D0FF48B1084BDF
:103D000008491A68013A2046D317BDE8704000F010
:103D100087B870BD3C040020900200207004002091
:103D2000480000207D3C000038B5EFF311852023CA
:103D300083F31288BFF36F8F104B114A9C68106891
:103D4000A04206D1FFF7C8FF85F31188BFF36F8F3C
:103D500038BD00211B7C11600A4AD35C002BF3D0D4
:103D60002046FFF79BFF0028EED0637BDB0602D1E5
:103D70002046FFF757FD2046E4E700BF3C04002043
:103D80006004002070040020EFF31181202383F3EE
:103D90001288BFF36F8F0A4A136A834207D11B6FE1
:103DA000136281F31188BFF36F8F70471346002BA6
:103DB000F7D01A6F8242F9D1026F1A67F1E700BF9C
:103DC0003C040020024B1868984208BF002070474E
:103DD0004C000020034B1B680BB9FEF73DB90020D7
:103DE000704700BF6804002030B570B10B4B5B68B2
:103DF00098420AD0036843B1D3E90421D0E90445CD
:103E0000121941EB0501C3E90421D0E90032136026
:103E10005A600023C0E9003330BD00BF4C000020D1
:103E2000B3F1FF3F08BFB2F1FF3F2DE9F84F044661
:103E3000994615461F467AD08160EFF311882023FA
:103E400083F31288BFF36F8FB9F1000FDFF8E4A09E
:103E500020DBFFF7BFFFDAE90027013549F1000950
:103E60002D1849EBE073C4E90453AD18064643EB43
:103E700007074FF00109FFF7A5FFDFF8BCE0DEF808
:103E800004A00346EBB9C4E900EACAF80040CEF842
:103E9000044028E0DAE900126FF001035B1A4FF0EA
:103EA000FF3161EB02025B1B62EB0902012B72F135
:103EB0000001BCBF01230022C0E904324FF0000919
:103EC000D9E7D3E9041CD4E904208A4270EB0C0B37
:103ED00024DA891A5A686CEB0000C3E90410C4E9BB
:103EE000003214605C60FFF76DFF84420ED1134B0B
:103EF0001B685BB9B9F1000F02D1FFF76BFF0646F3
:103F0000304601F020F80021FEF778F888F3118898
:103F1000BFF36F8F28463946BDE8F88F521A60EB21
:103F20000C009A45C4E90420ADD01B68AAE700251F
:103F30002F46EFE7A80200204C0000206804002074
:103F40002DE9F047EFF31185202383F31288BFF3A7
:103F50006F8FDFF8A490DFF8A480C9F80000FFF7A6
:103F600031FF00260027D9F80030D8E900ECD91736
:103F700050B1D0E90442A34271EB020A1CDAE41A00
:103F800062EB0102C0E9044213EB0E034FF00004A0
:103F90004CEB01012046C8E90031C9F8004000F0AF
:103FA000D2FF2146FEF72AF885F31188BFF36F8F01
:103FB000BDE8F047FFF7B8BE14EB0E024CEBE4731C
:103FC000C0E90467C8E90023FFF70EFF85F31188F5
:103FD000BFF36F8F83689847EFF31185202383F336
:103FE0001288BFF36F8FD9F800301B1BC9F800305F
:103FF000FFF7E8FEB7E700BF68040020A802002032
:1040000010B5EFF31184202383F31288BFF36F8F71
:10401000FFF7E0FE054A0346D2E90001181841EB1C
:10402000E37184F31188BFF36F8F10BDA8020020E5
:10403000014800F0CBBA00BF355A00002DE9F04F1F
:104040008DB043680293837815469A07804640F105
:104050000D8100240E78002E00F00A81252E0BD051
:104060004B1C03930134029B41463046984700287D
:10407000C0F2F6800399EDE74E788B1C252E039352
:10408000F0D00027B946BB46BBF11F0F38D8A6F1C8
:104090002003102B0AD8DFE803F02A0909300909A8
:1040A000092109090928092D09091F00A6F1300372
:1040B000092B33D92A2E37D11BF0400F55F8043B7A
:1040C00040F08280002BA7BF4BF0200B9946C3F134
:1040D00000094BF0280B01E04BF0010B039B13F898
:1040E000016B0393002ECFD130E04BF0020B4BF06D
:1040F000040BF3E74BF0080BF0E74BF0100BEDE788
:10410000BBF17F0F19D8A6F13003092BD2D81BF0D1
:10411000400F03D00A2101FB0737DFE70A2101FB2B
:1041200009394BF0200BD9E72E2E06D11BF0400F9A
:1041300040F09E804BF0400BD0E76C2E31D02BD856
:10414000682E36D06A2E3CD04C2E3AD0002F46F046
:104150002003B8BF2BF04002A3F16501BCBF1FFADA
:1041600082FB0027022901D9612B2FD1073525F0C9
:104170000705DFF8ACA2083507271BF0080F66D04B
:104180000AEB070B56465E4563D1A4EB0A0A06EB21
:104190000A02A9EB07096FE1742E9FD07A2E9DD0F9
:1041A000D4E71BF0800F18BF4BF4007B4BF0800B63
:1041B00094E71BF4807F18BF4BF4007B4BF4807BAB
:1041C0008CE74BF4207B89E71F4687E7A6F1630164
:1041D000122900F2F080DFE811F013004F00EE002A
:1041E000EE00EE00EE004F00EE00EE00EE00EE00FE
:1041F000EE00FE00E900EE00EE001B00EE00AF0056
:1042000055F8043B8DF8183001270DF1180AB4E772
:1042100055F804AB834BBAF1000F08BF9A461BF068
:10422000400F14BF39464FF0FF31504600F0F4FE06
:104230000746A2E7029B41462020984700280FDB53
:10424000013EB742F6D34C44A41BB14698E74E4614
:10425000F7E716F8010B029B41469847002892DACF
:1042600098F8023043F0040388F802304FF0FF342E
:1042700020460DB0BDE8F08F1BF0800F34D01BF44A
:10428000007F2CD0073525F00705AA4669685AF843
:10429000080B2BF010050029ADB237DA404261EB74
:1042A000410145F480650DF1180B0A235A4600F0D0
:1042B000BFFEA0EB0B0301936B0662D5019B25F0BB
:1042C00001019F4289B240F3A180002E00F0998045
:1042D00015F0100240F09C80BB460D4623E0AA4634
:1042E0005AF8040BC117D4E7AA461BF4807F5AF88A
:1042F000041B01D10846F5E71BF4007F15BF48B247
:1043000008B241F3C01141F3C031C2E750EA0103E2
:10431000C9D11BF0400FC6D0002FC4D12BF0110221
:1043200095B2BB46019740F2064115EA01021CBF57
:104330000BF1010B00222CE02BF010021FFA82FB84
:104340000A231BF0800C49D01BF400711DBF0735F8
:1043500025F00705AA46AA461ABF5AF8080B69684D
:104360005AF8040B50EA010545D12BF016051BF055
:10437000400FADB242D0002F40D12BF0170295B2C2
:10438000019715F0100248D0019B002E42D103F195
:10439000010B29075AD4EB0706D5D9456FDD0199E2
:1043A000A9EB0B035F18CB465B4649E04BF0100BC3
:1043B00010237826C5E7782B04D1C6F1780343F0A3
:1043C0001003BEE7029B4146252098470028FFF6D0
:1043D00047AF023447E608230026B2E7AA461BF49B
:1043E00080715AF8040BBDD01BF400711ABFC0B223
:1043F000614680B2B6E72BF0060295B20DF1180BBC
:1044000054E725F01105ADB2BB468CE70D46B8E781
:104410003B460D4603F1020BBBE7DDF804B082E733
:10442000645A00005D5A0000CDE904324146029B07
:10443000202098470028FFF613AF049B059A01330C
:104440009945F1DCA4EB0B01CC189B460AB3029B07
:104450004146302098470028FFF602AF8EB901345C
:104460002744019B391B994224DC1D465DBB019A00
:10447000A9EB0B09224455461446914435E0019FAF
:1044800092E7023441463046029B98470028E7DA1B
:10449000E6E640F206410D42E2D015F0020F14BFED
:1044A0002B20202015F4806F04F10104414618BF31
:1044B0002D20E9E7029B414630209847002804F16F
:1044C0000104CEDACCE606AB013D4146585D029BC5
:1044D00098470028CADAC3E6029B41462020984745
:1044E000002804F10104FFF6BBAEA9EB0403002B86
:1044F000F2DCBFE5704700EBC10040884008704720
:10450000F8B50346FFF7F7FFB0FA80F0C0F11F00DF
:1045100003EB800CCA00DCF81060171D0C46063255
:104520008DB256B9012101FA00F0D9680143D96072
:10453000CCF81040DD539D52F8BDF1000431585ABB
:10454000D85303EBC0009E52C5805D52F4E7043A95
:104550002DE9F041CC1D114424F0070421F007019E
:104560000E1BF708B7FA87F2C2F12405AD004FF031
:1045700000080735C2F12002ED0804604146A7603B
:10458000C4F80C80920004F1100000F02DFD6B00C7
:1045900043F00103638004EBC5027B1B5900A4F8C0
:1045A00000805180A21924F83550A2F80280A3534C
:1045B00004EBC70329465A8842F001025A8020467C
:1045C000BDE8F041FFF79CBF002070470FB407B56E
:1045D00004A951F8040B0191FBF762FE03B05DF8EA
:1045E00004EB04B07047038B13F0070305D1036895
:1045F000002B0CBF002003207047022B05D1408BFD
:10460000B0FA80F0400980007047012B05D10368A3
:10461000002B0CBF0020052070470020704710B50C
:104620000C4600B111B96FF0150010BD081D00F067
:1046300093F80028F9D1A368032BF6D9F3E72DE905
:10464000F0410D4607461946281D90461E4600F0CB
:1046500094F8044638B13346424629463846A446C3
:10466000BDE8F0416047BDE8F08110B4EFF311827E
:10467000202484F31288BFF36F8F416110BC0121A5
:10468000FBF740BE38B50C46054658B151B10B6832
:1046900043B14B6833B11C22002100F0A5FC2C6112
:1046A000002038BD6FF01500FBE770B505460E46DB
:1046B000FFF7B5FF041E14DBEFF31182202383F311
:1046C0001288BFF36F8F6B8B2C8B4FF6FF718B4271
:1046D00004F0070407D182F31188BFF36F8F6FF0E6
:1046E0000A04204670BD022C0CD101336B8382F387
:1046F0001188BFF36F8F0023224631462846FFF70B
:104700009EFFEEE7062C14D8DFE804F00413131321
:10471000041A0400002333606B683BB9C5E90066E6
:10472000ACB902212846FBF7EDFDDAE71E606E60AA
:10473000F6E782F31188BFF36F8F6FF00404D0E7C0
:1047400082F31188BFF36F8F6FF08504C9E782F39E
:104750001188BFF36F8FC4E7034658B1426802F077
:104760000302012A03D0032A04D1026812B10020F7
:10477000986070476FF0150070474268816002F0E2
:104780000302032A4FF0000203460CBF00681046E4
:104790005A607047704700F027BC00F017BC014614
:1047A0000068FBF7EBBE08B5FBF718FFBDE8084053
:1047B000FBF738BF00210120FBF7E0BE6FF085005A
:1047C000704761B662B680F31188BFF36F8F704790
:1047D00072B6002383F31188BFF36F8FBFF34F8F3F
:1047E00030BF62B6BFF36F8F704772B6002383F39A
:1047F0001188BFF36F8FBFF34F8F20BF80F31188F5
:10480000BFF36F8F62B67047202809D9B0F1004F0F
:1048100008D80138B0FA80F0C0F11F00400070479E
:10482000082070473E20704708B5FCF7BBFB00200E
:1048300008BD0369C9B20C2201FB0233186C00F0F9
:104840000700704770B5C9B20369EFF311852024E2
:1048500084F31288BFF36F8F0C2606FB0134246C9F
:1048600014F0C00408D0A24206D085F31188BFF32B
:104870006F8F4FF0FF3070BD06FB013301221A64C9
:1048800085F31188BFF36F8F436803EBC1035B6847
:1048900098470020EFE78022FFF7D4BFF8B5069FC6
:1048A0000469C9B2EFF31186202585F31288BFF39E
:1048B0006F8F0C2505FB0144256C05F0070CBCF13E
:1048C000010F0CD1276486F31188BFF36F8FC4E901
:1048D0000E23436853F8313098470020F8BD05F0A7
:1048E000C005AF4286F31188BFF36F8F0CBF6FF026
:1048F00077004FF0FF30F1E713B580240094FFF705
:10490000CDFF02B010BD10B40069CBB21C2403FB74
:104910000400002110BC10470020FDF76DBD0020F1
:1049200000F01CB91046FEF70BBE43685B68D3F875
:1049300010350B600020704743685B6802EA010095
:1049400021EA0201C3F80805C3F80C1500207047DE
:1049500043685B680020C3F80815704743685B68CC
:104960000020C3F80C15704743685A68D2F8043524
:1049700021EA03000B40C2F80805C2F80C350020FC
:10498000704710B503695868F8B1884219D19C681E
:1049900008685860A14200D19860002008602AB1E0
:1049A0005A680A609A68596002B99960002010E05C
:1049B000814206D10868206098688142EDD19C60F0
:1049C000EBE7044600680028F2D1002AE8D16FF036
:1049D000150010BD37B50446002201210320FCF765
:1049E000CFF86368DD6901AA0021284600F02BF8A2
:1049F00000280DDB019B2A6819791868FCF760FF15
:104A0000002805DB204603B0BDE83040FCF7E6BED9
:104A100003B030BDCA074368006905D4C1F3420240
:104A2000012A04D0022A0AD06FF0150070471B68D3
:104A30004FF0CC72C3F824250160002070471B683A
:104A40004FF0CD62F6E730B543681360057A4468ED
:104A500004EBC504A34202D36FF0010030BD5C79C2
:104A60008C4201D00833F0E70020F7E743681B6869
:104A7000D3F88004C3F88004704742681368D3F801
:104A8000100150B1D269002012780A70C3F81001E9
:104A9000D3F8102101221A6070474FF0FF307047A1
:104AA00002680346D2F8580140B95B68DB0706D4B8
:104AB000D2F82001003818BF01207047012070474C
:104AC00043681B68D3F80423D20517D5D3F82021F7
:104AD000A2B1EFF31182202181F31288BFF36F8F0F
:104AE000D3F8201131B10021C3F82011D3F82011DF
:104AF0000121D96082F31188BFF36F8FD3F8583149
:104B0000704713B501AA0446FFF79DFF002805DB97
:104B1000019B226819791868FCF7D2FE02B010BD1B
:104B20006FF08500704700F150039B009BB203F1CA
:104B3000804303F5883300221A601B6870470047E2
:104B400000F033B9C00000F1804000F5F830C0F843
:104B50001015C0F814257047FEF7BCB8FDF7C8BBA8
:104B6000F7B5019001A8DDE9084716461D46FDF797
:104B7000D5FC019BB6F1000C18BF4FF0010C00EB07
:104B800083000B1E18BF0123002D43EA4C0314BF02
:104B90004FF00C0C4FF0000C002C43EA0C0314BF38
:104BA0004FF4E06C4FF0000C002F43EA0C03D0F8F8
:104BB000002714BF4FF4403C4FF0000C43EA0C03B5
:104BC00022EA030301B109780EB136787600194361
:104BD0000DB12D78AD0031430CB124782402294366
:104BE0000FB13F783F040C433C43C0F8004703B08B
:104BF000F0BD1FB50DF10F03019300238DF80F10C9
:104C000000931A461946FFF7ABFF05B05DF804FBA9
:104C100038B5054608460C46FDF7D2FCB0B108464B
:104C2000FDF7C2FC90B90846FDF7B2FC2A680123E3
:104C30008340C2F808332A6803B202EB8303D3F837
:104C4000102522F00302C3F8102538BD20460021AC
:104C5000BDE83840FFF7CDBFFDF738BDFFF7D8BF3F
:104C600030B5D0F804312BB10023C0F80431D0F8AE
:104C70000431012391F82F2022B30022C0F824210F
:104C8000D0F82441C0F81C21D0F81C41C0F80821FC
:104C9000D0F80821002B79D0002281F82D2091F83E
:104CA0002F20002A37D14D6B8C6AA5421FBF0523E8
:104CB000C0F80025C0F80035134683F0010381F8E1
:104CC0002F3028E0D0F8244114B1C0F824210EE0A0
:104CD000D0F81C216AB3C0F81C41D0F81C214A6BE3
:104CE00001324A63D0F8245145B1C0F82441D0F8CC
:104CF00024210122426181F82F20CBE78C6AA24255
:104D000004D24C6AA25CC0F81C25C3E791F82C20A1
:104D10001AB10123C361002030BD0A6A12F0400FAE
:104D20004FF0010203D0C26181F82D20F3E7426108
:104D3000B0E7D0F80841002CACD0C0F80821D0F87A
:104D40000841D0F82441002CBFD14A6B8C6AA242A2
:104D5000A0D24C6AD0F81855A5544A6B8C6A01321F
:104D6000651EAA424A6308D10A6A540602D4022286
:104D7000C0F80022012202628CE7A242FAD10A6A3C
:104D8000520687D5022381F82D30C4E70120C3E7FE
:104D900007B5019001A8FEF723FA019A0123934079
:104DA000C0F8083503B05DF804FB08B1FCF742B960
:104DB000704710B5436904463BB90020E268537858
:104DC00043F001035370404210BD98470028F4D0CF
:104DD0000028B8BF4042E368FF28A8BFFF20187032
:104DE000ECE740B1C368587810F001001EBF187896
:104DF000B0FA80F040097047EFF31183202383F36A
:104E00001288BFF36F8FFEE708B5FFF7F5FF08B50F
:104E10002024EFF3118384F31288BFF36F8FFFF721
:104E2000D7FCF6E7EFF30580003818BF0120704784
:104E3000D0E9003213605A600023C0E900337047A4
:104E400008B5FFF7F5FF437B23F00203437300230C
:104E5000836008BD38B504460D46FEF7ABFC637BA6
:104E600043F002036373E5B1A5602B689D4209D14D
:104E70006B68C4E900531C606C6012E06A689A4277
:104E8000F6D01B68002BF3D094F90E2093F90E1086
:104E90008A42F3D09142F1DD5A68C4E900321460CD
:104EA0005C6038BD10B5EFF31184202383F31288C2
:104EB000BFF36F8FFEF73CFC84F31188BFF36F8F55
:104EC00010BD10B50146EFF31184202383F312883F
:104ED000BFF36F8F437B13F0280F0AD183680BB1A8
:104EE000FFF7AEFF4B7B23F004034B730846FEF73E
:104EF0001FFC84F31188BFF36F8F10BD0121183898
:104F0000FFF7DFBF70B505460E46FEF7AFFDB6F101
:104F1000FF3F08BFB5F1FF3F0446284612D04FF4CB
:104F20007A7147F6FF730022C4FB0132D80B40EAC6
:104F30004240B0F1004F4FEAD23272F1000228BF76
:104F40006FF0004070BD08B50246FEF73BFF70B140
:104F5000D0E904319B1A61EBE272B3F1004F72F1B8
:104F6000000104DA002AACBF1846002008BD6FF02B
:104F70000040FBE738B50246EFF31185202383F3A9
:104F80001288BFF36F8F0368CBB1FEF71BFF044697
:104F90001046FEF729FF00224FF000438442C0E98B
:104FA000042306D1FEF716FFFFF7CDFF0021FDF722
:104FB00025F8002085F31188BFF36F8F38BD6FF09F
:104FC0001500F7E708B5FFF71BF808BD0A44914242
:104FD00000F1FF3300D1704710B511F8014B03F811
:104FE000014F9142F9D110BD02440346934200D1D2
:104FF000704703F8011BF9E710B50139044632B1D7
:1050000011F8013F00F8013B013A002BF7D10021D4
:10501000FFF7EAFF204610BD10B5024601448A4260
:10502000134603D01C780132002CF8D1181A10BD99
:10503000F0B5C3F137070446FFB203F01F03104673
:10504000082BE6B233D0102B3ED06508A40844EA02
:10505000817445EAC1752D194FEA910242EB510264
:10506000290941EA02716D1842EB1212290A41EA3C
:1050700002616D1842EB1222290C41EA02416D18BF
:1050800042EB1242AD1842F10002EC0844EA4274CD
:10509000D10804EB8402A6EB4205EDB2092D0CD930
:1050A0000134A5F10A0541F10001EDB212E0E40876
:1050B00044EA417406F00705C908303554EA010294
:1050C00000F8015BBCD1F0BD240944EA017406F08C
:1050D0000F050909092D84BFED19EDB2EDE70000B8
:0C50E0000148006870470000B00200208A
:1050EC00F10F00000000000000000000345100002F
:1050FC00000000007451000000000000545100003A
:10510C000000000094510000591300000000000042
:10511C00991E000000000000CD0F000000000000F0
:08512C0000000000B451000076
:10513400BF59000040540000905300005400002068
:10514400E4020020F1100000000000000000000054
:10515400CE59000050540000545300005600002063
:1051640038030020111500000000000000000000BA
:10517400DC5900006854000054530000580000201B
:10518400440300201115000000000000000000008E
:10519400FF590000CC540000AC5300005C00002018
:1051A400500300203D1B0000214B000000000000C4
:1051B400EA59000080540000785300005A0000208F
:1051C40018000020D5490000000000000000000085
:1051D400A12400003F4B000000000000B547000080
:1051E40094510000C14A0000093100003F4B000007
:1051F40000000000B547000000000000B5470000B3
:10520400252B00003F4B000000000000B5470000C4
:1052140000000000B547000000000000B547000092
:1052240000000000B547000000000000B547000082
:1052340000000000B547000000000000B547000072
:1052440000000000B547000000000000B547000062
:1052540000000000B547000000000000291F000006
:1052640000000000B547000000000000B547000042
:1052740000000000B547000000000000B547000032
:1052840000000000B547000000000000B547000022
:1052940000000000B547000000000000B547000012
:1052A40000000000B547000000000000B547000002
:1052B40000000000B547000000000000B5470000F2
:1052C40000000000B547000000000000B5470000E2
:1052D40000000000B547000000000000B5470000D2
:1052E40000000000B547000000000000B5470000C2
:1052F40000000000B547000000000000B5470000B2
:1053040000000000B547000000000000B5470000A1
:1053140000000000B547000000000000B547000091
:1053240000000000B547000000000000B547000081
:1053340000000000B547000000000000B547000071
:1053440000000000B547000000000000B547000061
:10535400591500002B49000039490000514900004B
:105364005D49000069490000A91300008349000059
:045374000000000035
:10537800154A0000000000001D1700000000000092
:08538800000000000118000004
:105390004911000097480000F94800000000000093
:0C53A00033480000000000000000000086
:0C53AC007B4A0000851A00006D4A0000DA
:1053B800040000000F0000000100000008000000C9
:1053C8002000000060000000700000000D000000D8
:1053D8000C0000000E0000005000000074000000E7
:1053E800A8000000FFFFFFFFFFFFFFFFFFFFFFFF19
:0453F800FFFFFFFFB5
:105400000338FDD8704700000000002000000000B5
:1054100000000B06020000001C5400000000000009
:10542000AA5900002600020600000020B259000020
:1054300022000B117910000049100000000000004C
:10544000C9110000BD100000194900001F490000EB
:10545000FFFF0000000300500000000001000000FA
:105460000060004000000000BCF801FF0000005098
:10547000000000000000000000600040000000008C
:1054800000300040000000000000000000000000AC
:105490000000980100000101E5160000A054000082
:1054A00000300040AC54000002000000C454000072
:1054B00002000000BC540000020100001A80000C31
:1054C0001B80000B1A00000C1B00000B002000408A
:1054D0000100000000000000EC5400000000D601B4
:1054E000000000006E0400206D0400200020004039
:1054F000F8540000020000001855000004000000ED
:10550000085500000401000006800000088000012A
:10551000058000020780000306000000050000026D
:105520000806000107060003080000000300000051
:10553000EC500000EC5000001C5100002451000011
:1055400034510000345100004932432064657669CB
:105550006365206E6F742072656164790A003E7223
:1055600065643A25640A003E677265656E3A256493
:105570000A003E626C75653A25640A0049443A2087
:105580003078253032580A00493243207265616410
:10559000206661696C65643A2025640A0072302FC8
:1055A00061313A2020307825303878202072312F30
:1055B00061323A2020307825303878202072322F1E
:1055C00061333A20203078253038780A0072332F42
:1055D00061343A2020307825303878207231322FEB
:1055E00069703A2020307825303878207231342F95
:1055F0006C723A20203078253038780A0020787094
:1056000073723A20203078253038780A0046617568
:105610006C74696E6720696E737472756374696FF8
:105620006E206164647265737320287231352F7047
:1056300063293A203078253038780A00556E686141
:105640006E646C6564204952516E3A2025640A00EC
:105650002A2A2A2A2A204D5055204641554C5420AA
:105660002A2A2A2A2A0A002020537461636B696E51
:1056700067206572726F722028636F6E746578742C
:105680002061726561206D69676874206265206EB3
:105690006F742076616C6964290A002020556E734E
:1056A0007461636B696E67206572726F720A0020A5
:1056B0002044617461204163636573732056696F90
:1056C0006C6174696F6E0A0020204D4D4641522076
:1056D000416464726573733A20307825780A00203B
:1056E00020496E737472756374696F6E20416363D1
:1056F0006573732056696F6C6174696F6E0A002060
:1057000020466C6F6174696E672D706F696E7420CE
:105710006C617A7920737461746520707265736549
:1057200072766174696F6E206572726F720A002AF8
:105730002A2A2A2A205553414745204641554C5490
:10574000202A2A2A2A2A0A002020446976697369B5
:105750006F6E206279207A65726F0A002020556E84
:10576000616C69676E6564206D656D6F727920612B
:1057700063636573730A0020204E6F20636F70723D
:105780006F636573736F7220696E7374727563747F
:10579000696F6E730A002020496C6C6567616C202C
:1057A0006C6F6164206F66204558435F52455455C5
:1057B000524E20696E746F2050430A002020496CBD
:1057C0006C6567616C20757365206F662074686511
:1057D00020455053520A002020417474656D707446
:1057E00020746F206578656375746520756E6465D7
:1057F00066696E656420696E737472756374696F2F
:105800006E0A002A2A2A2A2A204255532046415548
:105810004C54202A2A2A2A2A0A0020205374616321
:105820006B696E67206572726F720A002020507279
:1058300065636973652064617461206275732065B6
:1058400072726F720A002020424641522041646405
:10585000726573733A20307825780A002020496DEC
:105860007072656369736520646174612062757329
:10587000206572726F720A002020496E737472750F
:105880006374696F6E20627573206572726F720A3D
:10589000005265736572766564204578636570743F
:1058A000696F6E20280053707572696F7573206977
:1058B0006E746572727570742028495251200053BD
:1058C0005053454C20696E20746872656164206D88
:1058D0006F646520646F6573206E6F7420696E64F9
:1058E0006963617465205053500A002A2A2A2A2AC3
:1058F0002048415244204641554C54202A2A2A2A05
:105900002A0A002020427573206661756C74206F2E
:105910006E20766563746F72207461626C652072AC
:105920006561640A002020446562756720657665BC
:105930006E740A0020204661756C74206573636183
:105940006C6174696F6E20287365652062656C6F89
:1059500077290A00415243485F4558434550542037
:105960007769746820726561736F6E2025780A0A02
:10597000002A2A2A2A2A204465627567206D6F6EE4
:1059800069746F7220657863657074696F6E202A20
:105990002A2A2A2A0A002A2A2A2A2A202573202586
:1059A0006429202A2A2A2A2A0A00464C4153485FA1
:1059B00030005352414D5F30000000010000006391
:1059C0006C6F636B40343030303030303000677093
:1059D000696F403530303030333030006770696F78
:1059E0004035303030303030300069326340343050
:1059F00030303330303000000102030405060775F3
:105A00006172744034303030323030300000000089
:105A10000000010100000000000020303030303074
:105A2000303030303030303030000169646C650027
:105A30006D61696E002A2A2A20426F6F74696E6751
:105A4000205A6570687972204F53206275696C64C2
:105A50002076342E332E30202A2A2A0A00286E750A
:0C5A60006C6C29002A666C6F61742A00CF
:105A6C00B4510000C94500000000000029480000A6
:105A7C000000000000000000000000001C000020DE
:105A8C001C00002001000000010000002C00002080
:105A9C002C000020000000000100000000000000AD
:105AAC00FF000000FFFF0F00900200004C000020E0
:045ABC004C0000207A
:0C5AC000000000000000000000000000DA
:045ACC0015E015E0EC
