:10000000001C00203D1F0000C16D0000291F0000E2
:10001000291F0000291F0000291F00000000000008
:10002000000000000000000000000000112000009F
:10003000291F000000000000AD1F0000291F000064
:10004000BD210000BD210000BD210000BD21000038
:10005000BD210000BD210000BD210000BD21000028
:10006000BD210000BD210000BD210000BD21000018
:10007000BD210000BD210000BD210000BD21000008
:10008000BD210000BD210000BD210000BD210000F8
:10009000BD210000BD210000BD210000BD210000E8
:1000A000BD210000BD210000BD210000BD210000D8
:1000B000BD210000BD210000BD210000BD210000C8
:1000C000BD210000BD210000BD210000BD210000B8
:1000D000BD210000BD210000BD210000BD210000A8
:1000E000BD210000BD210000BD210000BD21000098
:1000F000BD210000BD210000BD210000BD21000088
:1001000053B94AB9002908BF00281CBF4FF0FF317E
:100110004FF0FF3000F00CB8ADF1080C6DE904CEE3
:1001200000F010F8DDF804E0DDE9022304B07047C8
:10013000704700BF034613F8012B002AFBD1181AA1
:10014000013870472DE9F04786468C460846089EE0
:10015000154674461946002B40F0C2808542B2FA1B
:1001600082F245D94AB1C2F1200300FA02FC2EFA0C
:1001700003F3954043EA0C0C94404FEA154EA8B2A5
:10018000BCFBFEF8230C0EFB18CC08FB00F943EA7D
:100190000C43994528D9EB1808F1FF3704D299454B
:1001A00002D9A8F102072B44A3EB0903A4B2B3FBC5
:1001B000FEFC0EFB1C330CFB00F044EA0344A0429F
:1001C00014D92C190CF1FF3304D2A04202D9ACF19E
:1001D00002032C44241A43EA07401EB1D4400023F2
:1001E00034607360BDE8F0874746DDE76346F1E7BA
:1001F00092BB431B01214FEA154EAFB2B3FBFEFC8D
:10020000200C0EFB1C330CFB07F840EA0343984517
:1002100062D9EB180CF1FF3004D2984502D9ACF149
:1002200002002B44A3EB0803A4B2B3FBFEFC0EFBBD
:100230001C330CFB07F744EA0344A7424ED92C19A0
:100240000CF1FF3304D2A74202D9ACF102032C44D3
:10025000E41B43EA0040C0E7C2F1200320FA03F1A7
:10026000954090402EFA03F303434FEA154EAFB288
:10027000B1FBFEFC0EFB1C10190C0CFB07F841EA4D
:100280000041884504FA02F422D969180CF1FF30C4
:1002900004D2884502D9ACF102002944A1EB08013F
:1002A0009BB2B1FBFEFC0EFB1C110CFB07F743EAF3
:1002B00001439F420ED9EB180CF1FF3104D29F424B
:1002C00002D9ACF102012B44DB1B41EA004192E769
:1002D0006046E3E76146F7E76046A3E76346B7E7B2
:1002E000834206D916B9002108467BE7C6E900E03B
:1002F000F9E7B3FA83F78FB9834201D3724508D87F
:10030000BEEB020460EB030301209C461EB90021F2
:1003100068E73846FAE7C6E9004CF8E7C7F1200C71
:10032000BB4022FA0CF41C432EFA0CF120FA0CF319
:10033000B84001434FEA14490EFA07F5B3FBF9F848
:100340001FFA84FE09FB18300B0C08FB0EFA43EA77
:1003500000439A4502FA07F240D9E31808F1FF304A
:1003600004D29A4502D9A8F102002344A3EB0A0360
:1003700089B2B3FBF9F809FB183308FB0EFE41EA1A
:1003800003418E452CD9611808F1FF3304D28E4504
:1003900002D9A8F10203214443EA0040A0FB0298DD
:1003A000A1EB0E014145CE46434602D306D14D4551
:1003B00004D2B9EB020E68EB04030138002EA6D07C
:1003C000B5EB0E0261EB030101FA0CFC22FA07F314
:1003D0004CEA0303F940C6E9003198E74046C5E717
:1003E0004346D9E7F0B583B000AF00247C60294DC7
:1003F000284607F0AFF90346C0B96C4688B02968B3
:100400006A462548C2E905014FF4007191832349EA
:1004100042F8101F22484FF4E25100F0D5FFA546E4
:100420006FF0040420460C37BD46F0BD6E4688B020
:100430002B686A461B49C2E905134FF40073938386
:10044000164B42F8103F164823464FF4E65100F091
:10045000BBFF154B7B602146B5463A1D284606F08A
:10046000FAFE041E08DBAE68336828469847041E6F
:1004700009DA0E4A234601E00D4A234608480121C5
:1004800006F0DAFBCEE700214FF4004007F0A5FAB2
:10049000EAE700BF747D00006082000003000001F5
:1004A000C87F00007F8200005C000020B98200004D
:1004B000978200002DE9F04F91B08407009302F07D
:1004C00004030293C2F3C20303F10103DDF8688061
:1004D000039205460E46059340F0BA81041D30B1E3
:1004E000072909D86FF01B0011B0BDE8F08F01F0AB
:1004F00007063444C6F10806009B4FF00009591E58
:100500004FF0040A4FF0FF330193CDF810904F469F
:10051000CB4653460DB1009A22600598002800F39F
:10052000E8809848009A824203D397488242C0F0FC
:10053000E080039AA4EB050E92074FEA9E0000F1BB
:1005400003810F2F00F2B180002D00F0058107F12B
:1005500040020DEB020C019A0CF8200C0CF8102C48
:10056000049801300490E7E07A285DD84B280ED833
:10057000472859D829282DD8252852D054D82028A2
:100580007AD02338D0F1000B4BEB000B74E04C38E1
:100590002E2849D8DFE800F07048484848484848C5
:1005A000484848484B484848484848484859484BB4
:1005B0004B595959704B6D487048184B1848488230
:1005C0007F4B48484B487F0000204FF0000B4FF016
:1005D000040A38E02A38C0B2012202FA00F010EA18
:1005E0000E0F49D110F0625C2FD110EA020B43D0FC
:1005F0006046013C5444B4FBFAF40AFB04F4002DB9
:1006000061D0A3EB050CA444B4453FF66BAF0028C2
:1006100068D1042B47D158F8043B236004340423E9
:100620002AE0019A013A01924FF0000B24E011F800
:10063000010C6C2834D111F8023C00206C2B83464D
:10064000C5D14FF0080A5346D3E708F1070828F050
:1006500007080734F8E802AB24F0070435B1069820
:100660002044B0423FF63EAFC4E900AB08344FF03F
:10067000000B4FF0080A534611F8010F002878D0FC
:10068000BBF1000F7FF470AF2528F5D1019B01333A
:1006900001934FF0010B4FF0040AECE7584694E742
:1006A00000208346A5E7082B02D06FF015001BE75A
:1006B00008F1070828F00708F8E80223C4E9002336
:1006C00008340823D8E768B9042B02D108F10408DC
:1006D000A4E7082BE9D108F1070828F0070808F17A
:1006E0000808EDE7059A013A059258F8042B0092A4
:1006F00010E7039A900720D5A4EB050E4FEA9E0061
:100700004FF0010CBEF5007FCFD20F2FCDD8F5B141
:1007100007F140020DEB020EC0B2019A0EF8200C58
:100720000EF8102CBCF1000F3FF41AAF60F07F0000
:100730000EF8200C09F101090137C5F10802043453
:1007400006924FF6DA7E97E74FF0000CDAE7BCF13D
:10075000000F01D00136EFE7029802360028EBD1F6
:100760000098CDE90631FFF7E5FCDDE906310644E6
:10077000E2E7631BB3F5806F97D23DB9A6F1080499
:10078000E018B1E6747C0000888B0000029A2860B3
:100790009B082B709DF81030C2B1EB7085F8029069
:1007A000B9F1000F05D008A80022C5F1010C97424D
:1007B0000ED1C5F101030DF120084FF0000A01939D
:1007C0000DF1300B574512D1601B8DE66B70E5E7DC
:1007D00010F8013B190608D50CEB040EB64503F0E2
:1007E0007F033FF67FAE04F8013B0132DFE7B9F14A
:1007F000000F03D098F90020002A17DB029BD3B129
:100800001AF80B2004F8012B0022019B1819104440
:10081000B0423FF667AE98F8000004F8010B00996B
:100820000392204607F08AF9039A14440AF1010A58
:1008300008F10108C6E798F8002055F82230009327
:10084000029B45F822300098FFF774FC421CDCE75D
:100850006FF00D0048E600BF2DE9F04F97B000AFF4
:1008600090F802A0D7F880B03B62CBF3C0030446F7
:10087000FA62BB61894641B9457800780AEB80008D
:1008800020444D4517D8A0EB0409E378FB61BAF189
:10089000000F02D01BF0010F16D1FB6953BBFB6A9E
:1008A0001BB13A6A4946204698474D4628465C3770
:1008B000BD46BDE8F08F461C3046FFF73BFC0130DB
:1008C000304409F10109DCE7237862687A62FA6A48
:1008D0009900796104EB8301002A40F000814D46C4
:1008E0000E4601EB0A094FF000084E454CD101EBD2
:1008F0000A0610E01BF0020FD1D023789A007A612B
:1009000062687A62FA6A04EB8301002A77D14D4665
:1009100001EB0A0690461BF0050F0CBF02230123D2
:10092000FB62FB6906EB430A0BF00203BB62564510
:10093000BCD016F8021B16F8013C54F82390994BD2
:10094000994502D3984B994536D3BB69002B40D0CB
:10095000786A05F04EFD00283BD0E9468AB06A4629
:10096000924B53617B6AC2E906314FF400731384E2
:100970008F4B42F8103F8F4800234FF4125100F084
:1009800023FD023DCD46D2E716F8013BF96254F84B
:100990002300FFF7CFFBD7F88430F96A01304BB161
:1009A000D7F8883098453EBFD7F8843023F8180030
:1009B00008F10108054498E7BB6923B1786A05F09E
:1009C00018FD0028C9D11BF0010F05D1FB6AED1AF3
:1009D000ADE7BB6A002BAAD04846FFF7ABFBD7F8C0
:1009E000843053B1D7F8883098453FBFD7F884207A
:1009F000431C22F8183008F10108054497E7BAF1C2
:100A0000000F72D01BF0040672D0D046002607F10A
:100A1000480052463B61B96207F090F8B96A3B69F9
:100A200001EB0A02BA62FA69F9695200FA60BA6A1D
:100A300002EB41023A610BF00202BA603A69B96A0C
:100A40008A4257D162787A621BF0020F32440CBF9F
:100A50004FEA580100211BF0010FD2B240F09F80F5
:100A60001BF0040F14BF40460020BB616270A070F1
:100A7000E1703A6A7969FB6A20469847051EFFF6DD
:100A800015AFBB6923707B6A6370FB69E3704146F5
:100A90003A6AFB6A84F802A007F148009847B0F16F
:100AA0000008C0F2BB807B693A6AA9EB0A01C91A47
:100AB000FB68C91AD7E90A0398470028C0F2B0803A
:100AC000A84408EB00054FF0000B07F1380AB345C6
:100AD00072D300213A6AFB6A08469847E6E6564612
:100AE0004FF0000807F1380093E75646D04697E7E5
:100AF000B04695E7BA6A12F8021BBA6212F8015CB6
:100B0000284A54F82500904202D3274A90421ED327
:100B1000BA6932B1786A7B6005F06BFC7B680028AB
:100B20008CD1BA6802BB08F1280207F1300C08F139
:100B30000100944407F1580252FA80F008F10208CB
:100B40000CF8101C5FFA88F800F8105C76E7BA69B8
:100B50003AB1786A7B6005F04CFC7B6800287FF432
:100B60006DAF1BF0010F09D006F1280207F130002C
:100B7000711C161806F8205CCEB25FE71BF0040F5C
:100B80003FF45CAF08F1280207F1300008F10101E1
:100B900002EB000808F8105C5FFA81F84EE70020CD
:100BA00063E700BF747C0000888B0000DC820000DB
:100BB00004000001887F00001BF80A3087F83730F6
:100BC00054F82390D7F884302BB3D7F888309B455E
:100BD00021D2D7F8843033F81B803A6AFB6A0121AE
:100BE00007F13700984700281ADB0544B8F1000FD9
:100BF00006D14846FFF79EFA00F101081FFA88F86F
:100C00003A6AFB6A414648469847002808DB054493
:100C10000BF1010B5BE74FF00008DEE7454645E6C8
:100C2000054643E6014B1860704700BF00000020F6
:100C300080B505460E461746984604F04DFD03461E
:100C400007F00EF8DFF81890044649F800304246E5
:100C500030463946A84754F8090001F091F900BF21
:100C6000080000002DE9F047058B04462807904650
:100C700011D4022905F0070540F0CC80204605F08C
:100C800056FE78B10138218B042811D8DFE800F036
:100C9000C2106D85950001290CBF45F0100545F087
:100CA0002005258388F31188BFF36F8FBDE8F08797
:100CB00001F0070AAA4500F0A5800027B9463E4684
:100CC000A368002B00F0BC8041F00801218388F369
:100CD0001188BFF36F8FA168002900F0BA800D68FA
:100CE000002900F0B680D1F80480334652462046F1
:100CF000C047002D76D02B6829461D46F0E701F04D
:100D000007035A1F012A1BD8002221F00701062BD6
:100D1000276889B2C4E9002209D13B4603E0628B0F
:100D2000013262831B68002BF9D141F0020121835B
:100D3000204605F0FCFD00287AD041F0200176E045
:100D4000042B0AD121F0070189B22183204605F046
:100D5000EEFD10B141F020012183218B01F0070A43
:100D6000AA454FD00027B946AAE7236921F0070119
:100D700041F00601062DD3F8009021832DD1B9F161
:100D8000000F3FD041F00801218388F31188BFF3A1
:100D90006F8F3A492046C84729E021F007012369AF
:100DA00041F0040189B2042DD3F804902183E6D0E8
:100DB00000273E464FF0040A82E721F0070123692D
:100DC00041F0050189B2052DD3F808902183D6D0D2
:100DD00000273E464FF0050A72E700273E464FF0D7
:100DE000060A6DE72B4687E7B9F1000FD1D1EFF383
:100DF0001188202383F31288BFF36F8F238B23F096
:100E000008032383258BEA062ED525F010032383C0
:100E100005F007056669218B002EBFF670AF002331
:100E20002768C4E9003321F0070141F00101218363
:100E3000218B01F0070AAA454FF000097FF440AF6B
:100E4000002F9CD041F00801218388F31188BFF363
:100E50006F8F002FC8D03D68394633465246204632
:100E600005F091FD2F46F4E7AB067FF51BAF25F0AB
:100E70002003238305F0070500E700BFB3690000E6
:100E80002DE9F047DFF85880044607464FF0010986
:100E900014B93846BDE8F08794FAA4F5B5FA85F59B
:100EA00009FA05F32E0108EB05156FEA030A24EA97
:100EB00003042B7B002BEBD058F806301B694BB991
:100EC0004644042273682846196807EA0A0705F0B1
:100ED0003AFEDDE7284698470028D9D1F0E700BF61
:100EE000F07F000030B51049104889B0002206F0AC
:100EF000FDFD0F4D0F4900220023CDE906230024FC
:100F00000E23CDE90334CDE901440B4B00944FF49B
:100F10004072284604F070F90849284604F0E6F8C3
:100F2000204609B030BD00BF410F00008005002001
:100F3000C8000020000B00206D120000908300000C
:100F4000014803F031BF00BFB40000202DE9F04795
:100F5000804621480F4605F0D6FD0646002833D0CE
:100F600000252846BDE8F087237B83B12368DB6832
:100F70000BB120469847636883F8069023681B6985
:100F8000D3B9636804221968204605F0DCFD0136F8
:100F900010345445E8D3B8F1000FE2D0002DDFD073
:100FA0002846FFF76DFF0546002FF7D000214FF4CC
:100FB000A47006F012FDF1E7204698470028E0D023
:100FC00009FA06F31D43E2E7044CDFF814A00546D6
:100FD0004FF00109DDE700BFE8080020F07F0000C6
:100FE00000800000014B53F8200070476C80000027
:100FF00008B5034608462BB1044A136000F07AFC9A
:10100000002008BD6FF01500FBE700BF04000020C2
:1010100010B5044C237813B9034803F0C5FE01232F
:10102000237010BDF80A0020B400002010B504465B
:101030000B4805F068FD5CB1BFF35B8F094B53E8CB
:10104000001F013943E80012002AF8D1BFF35B8F7B
:10105000054806F057FD0548BDE8104003F0A4BE62
:10106000E0080020E408002080050020B4000020F3
:101070000020064BBFF35B8F014653E8000F43E8A7
:101080000012002AF9D1BFF35B8F7047E0080020FF
:1010900070B5FFF7EDFF084C084E0546B44200D38B
:1010A00070BD63685B792BB123685B6813B1294617
:1010B000204698471034F1E7F07F000000800000E0
:1010C00010B5044C0449204605F0CAFA034B1C60D5
:1010D00010BD00BF7800002058800000D808002014
:1010E0000D4A0E48002310B513700D4A13600D4AC7
:1010F0004FF400411360FFF77BFFFFF7E1FF0A4B5E
:101100000A4918468B4200D310BD1A1A5C681211A6
:10111000013222711033F5E7F90A0020036B000059
:10112000E0080020E4080020F07F000000800000BC
:10113000014600220148002305F0B3BA78000020E0
:10114000014805F04CBB00BF78000020024B01466F
:10115000186805F098BB00BFD8080020014805F0CA
:10116000CDBB00BF7800002070B5294B187800284F
:101170004DD0FFF7E5FF0546002845D1254B264C0D
:101180001B68002B19DD06F0AFFC4FF47A72A0FB50
:10119000020302FB0131C30BD4E9002043EA4143BF
:1011A0009B1A4FEAD13140F2E93261EB00019342E0
:1011B00071F1000101D3FFF76BFFD4E9003213F5A1
:1011C0007A7342F10002C4E90032BDE87040FFF7D3
:1011D000C5BF63685B7923B1236829461B68204635
:1011E00098471034B442F4D32846FFF7AFFFBFF35B
:1011F0005B8F0A4B53E8001F013943E80012002AB5
:10120000F8D1BFF35B8FB9E7054C064EEAE770BD36
:10121000F80A0020E008002078050020E4080020FB
:10122000F07F00000080000070B50D4D297861B995
:101230000120FFF78BFE0B4C0B4EB44206D3FFF799
:1012400093FF0028FBD101232B7070BD63685B798D
:101250001BB1236820469B6898471034EDE700BF18
:10126000F90A0020F07F00000080000000212DE935
:10127000F0470846FFF76AFE044658B340F2676835
:101280004FF0000906F0ECFC1B4B1C4A1B58136086
:1012900033B11B4B1B68092B02DD1A4803F084FD98
:1012A000194FDFF860A0002544B12046FFF7E8FDA4
:1012B000044618B94FF0FF384FF0FF39FFF754FFDD
:1012C000064628B9B5B942464B46504603F0A0FD44
:1012D0003546E9E74FF0FF384FF0FF39D2E72B688A
:1012E0009B691BB100221146284698471035BD4224
:1012F000F5D3E8E7054DFAE708000000DC08002018
:10130000E4080020B400002000800000F07F00000E
:1013100013B5184805F0F7FB174B1B7873B1EFF3C3
:101320001184202383F31288BFF36F8FFFF71CFF14
:1013300084F31188BFF36F8F02B010BD0F4B1B6891
:10134000002BF9D050B900220023CDE900230C482E
:101350004FF40042002304F0D5FCEDE70928EBD15F
:10136000074806F0CFFB074802B0BDE8104003F085
:101370001BBD00BFE4080020F90A0020DC080020A3
:1013800080050020B400002010B5064B1B68044601
:1013900098472146A060044805F002FABDE81040D5
:1013A000FFF7B6BF0400002078000020044A054B78
:1013B0009B1AB1EBD30F34BF52F8310000207047B5
:1013C000807F0000F07F00002DE9F04F8FB004AF68
:1013D000C1F34A28B8600D4691467B600C0DB8F108
:1013E000000F63D0002607F114034FF0040B4FF0F9
:1013F0000A0AC7F80C80C7E907667E620193CDF838
:1014000008B0CDF800A007F11C03F9683246484641
:10141000FFF722FAB0F5006F03461CD36C468AB082
:10142000D9F8041004AB2648C3E9050140F2FF7166
:10143000D9611A464FF400711984224B42F8103FCB
:10144000214833464FF41251FFF7BEFFA5462C3713
:10145000BD46BDE8F08FC0F30A0804F11700184438
:1014600020F0070080083B60FFF762FE68F3532519
:10147000044690B13B68154AC7E9083600F11001EF
:1014800007F11403F961CDE900A3CDF808B0F968BC
:1014900007F11C034846FFF7DFF968F353257B6823
:1014A000B9682A46204605F06EFBD0E704F1170024
:1014B00020F007008008FFF73BFE0446EDE700BF81
:1014C000A583000004000001B07F0000596B0000FC
:1014D0002DE9F04F87B0DDE91279DDE9105A0446B5
:1014E000039193469846BFB1CDF800903B465246D3
:1014F00010210020CDF81490FEF7DCFFB0F5006F4E
:1015000006460AD3184A194840F2FF73022107B071
:10151000BDE8F04F05F090BB3E4605F117003044A2
:1015200020F0070004F007048008FFF701FE0BF02D
:10153000070BE40044EA8B1444EA462444EA0554C9
:10154000054640B13FB1CDF800903B46524631468A
:101550001030FEF7AFFF039943462246284607B0F6
:10156000BDE8F04F05F00FBBE4830000B07F000042
:10157000406820B1034BC01A40F3CF0070474FF0D2
:10158000FF307047807F00000EB403B503AB014607
:1015900053F8042B0448019300F098FF02B05DF863
:1015A00004EB03B0704700BF836C0000CA0605D48B
:1015B0008B064CBF02490349FFF7E6BF704700BFE7
:1015C0001D8400001C8400002DE9F04F89B09B466B
:1015D000149B06939DF84CA0159B0593169B179E94
:1015E000049304460D469046BAF1000F00F09D802A
:1015F00006F48073079305F0A4FA06F00209024688
:1016000000283ED091492046FFF7BEFF0746B9F1BA
:10161000000F08D016F0440F35D18D492A462046D8
:10162000FFF7B2FF074406F0010353B1894B8A4923
:1016300053F82A20894B2046002A08BF1A46FFF794
:10164000A3FF06F48073002B49D006F00803002B9B
:1016500063D1B8F1000F66D0814942462046FFF7BA
:1016600093FF0546069B3D44002B6DD1049B002B48
:1016700073D1F30700F1E48031462046FFF796FF6F
:10168000D8E00746C3E7774B18680028CAD0764BE6
:101690004FF47A791B68B5FBF3F54FF46163B5FB42
:1016A000F0F100FB115509FB05F54FF03C0CB1FBC7
:1016B000F3F203FB1211B5FBF0FEB1FBFCF300FBF0
:1016C0001E550CFB131109FB05F50091B5FBF0F558
:1016D0006649CDE901E52046FFF756FFA2E706F08F
:1016E0000803EBB1624B634953F82A202046FFF709
:1016F0004BFF0546B8F1000F05D059494246204638
:10170000FFF742FF0544BBF1000FABD05A495A46E0
:101710002046FFF739FF0544A4E74FF0000BE1E74F
:1017200006F00805E6E745469CE7BBF1010F069B7E
:1017300006D1002B64D1049B002B7BD000250CE04C
:10174000002BF8D04D485CE04D48069B4D492246A1
:1017500004F01EFE049B002B68D0DFF82C81DFF81C
:101760002C91049F3146102F204628BF1027FFF7E9
:101770001DFF4FF0000B5D4545DC059B49461A787F
:101780002046FFF701FF4FF0010B1BF0070F03D1BD
:1017900041462046FFF7F8FE5F453BD9059B494689
:1017A00013F80B202046FFF7EFFE0BF1010BBBF106
:1017B000100FEAD1364920464FF0000BFFF7E4FE48
:1017C0005A46059B9A5CA2F120015F2928BF2E2270
:1017D00030492046FFF7D8FE0BF1010BBBF1100F8B
:1017E0001DD01BF0070F03D141462046FFF7CCFE6A
:1017F0005F455A46E5D841462046FFF7C5FEEBE770
:101800001F485546A1E741462046FFF7BDFE0BF1B4
:10181000010BB0E720492046FFF7B6FEC5E7059B60
:101820003B440593049BDB1B04939AD1BAF1000F50
:101830007FF41FAF204609B0BDE8F04F05F014BAA1
:10184000064A05492046FFF79FFE15E7248400005D
:10185000288400007C800000D18900001F840000E3
:101860004D840000F0080020EC08002031840000C6
:10187000908000005184000057840000B96C000083
:10188000836C0000CD240000648400005C840000B0
:1018900066840000688400006284000073B542F230
:1018A0000F738B4228BF0B4605680F4A044605217B
:1018B000684604F07BFA63680C495B6806460B22B5
:1018C000284605F0C3F963683246694628465B68D6
:1018D00005F0BCF9636806495B681B22284605F0E1
:1018E000B5F902B070BD00BF7885000087840000A4
:1018F0006B840000074A00210123904206D8064A63
:1019000001B901231360054B1860704740085B0064
:101910000121F2E740420F00EC080020F00800200F
:10192000F8B5074F0D4604464618B44201D1284683
:10193000F8BD14F8011BBB6801485B689847F4E7E1
:10194000347D0000014B036000207047D880000008
:1019500008B50348034A0021121A05F029FA08BD08
:10196000C8000020000B00200748084A084908B5B5
:10197000121A05F01FFA0748074A0849BDE808404F
:10198000121A05F017BA00BF00000020C4000020A2
:10199000888B00000000002000000020888B0000E1
:1019A0002DE9F047064600AF0C46002936D0E9463F
:1019B0008AB0D1E90012A3686D462148A8464FF0CD
:1019C000050AC5E90501C5E9072348F810AF1D4818
:1019D000424600234FF42151FFF7F6FCCD46D4E9EF
:1019E00003126369AD461848C5F810A0C5E90501A2
:1019F000C5E907231348002342464FF42151FFF75E
:101A0000E3FCCD46E369114A0E48012105F014F9C3
:101A1000A3690F4A0B48012105F00EF9012E07D1E9
:101A2000EFF305830B4A0748103B314605F004F9F4
:101A30002146304603F028F8BD46BDE8F08700BFD8
:101A4000CD840000D87F0000FC8400002B850000BE
:101A50003A8500006885000030BFFFF7FDBF00BF7A
:101A60002DE9F0410B4EDFF8308006EB0807CC1B68
:101A7000054632460949204606F060F8A01942465C
:101A80000021083C06F068F8C5F8A44007F10800FA
:101A9000BDE8F08100000000040000004480000068
:101AA000054B5A699B689A421FBF044A536843F02A
:101AB00080535360704700BFC00A002000ED00E073
:101AC00070B5294C06460D462848294905F07FF98E
:101AD000A36AD9043CD52548264905F078F9172092
:101AE000A36A1A0504D52148234905F070F9182086
:101AF0001D4CA36A9B0512D51C48204905F067F9C7
:101B0000A36BA26A100409D51D4A1848012105F0EB
:101B100093F81EB1A36A23F40043A3621920124C68
:101B2000A36A590504D51148164905F050F91A2041
:101B3000A36ADA050ED50D48134905F048F91B20B4
:101B4000094A936A43F47F43936200232B7070BD6C
:101B50001620C5E7A36A9B04F2D504480B4905F09B
:101B600036F91C20ECE700BF00ED00E0D87F000054
:101B70007B85000091850000A2850000B5850000EE
:101B8000CE850000E3850000FE850000168600007B
:101B900010B5204C2049214805F019F9A36A990194
:101BA00036D51E481E4905F012F91E20A36ADA0137
:101BB00004D51A481B4905F00AF91F20154CA36AE1
:101BC0001B0304D51548184905F001F92120A36A23
:101BD000590304D51148154905F0F9F822200D4C98
:101BE000A36A9A0304D50D48114905F0F0F82320A3
:101BF000A36ADB0304D509480E4905F0E8F8242060
:101C0000044A936A6FEA03436FEA1343936210BD79
:101C10001D20CBE700ED00E045860000D87F0000E6
:101C20005D860000708600008A860000A88600009D
:101C3000CD860000E78600002DE9F843364D80464A
:101C4000894636483649174605F0C1F8AB6ADE06C4
:101C500027D53449314805F0BAF81124AB6A1D077D
:101C600004D531492D4805F0B2F812242A4DAB6A4B
:101C7000980718D52D49294805F0A9F86E6BAB6A6D
:101C8000190646D52A4A25483346012104F0D4FFD7
:101C9000B9F1000F03D0AB6A23F08003AB621324C9
:101CA00003E01024DAE76FF015061B4DAB6ADA0784
:101CB00004D52049194805F08AF81424AB6A9B061C
:101CC00004D51D49154805F082F81524124B9A6A6F
:101CD000D50602D49A6A90070AD55B68190507D51C
:101CE0004146304600F020FA10B180F30988022402
:101CF000094B9A6A920642BF5A6A22F400525A620B
:101D00009A6A42F0FF029A6200233B702046BDE8C7
:101D1000F8836FF01506C2E700ED00E0D87F000001
:101D20001287000028870000A28500005B87000062
:101D30007387000089870000168600002DE9F041B6
:101D4000664B8AB0D3F8048000AF0446C8F3080598
:101D5000002686F31188BFF36F8F02F07F43B3F143
:101D60007F4F07D102F00C03082B12D15C495D486C
:101D700005F02DF8002634460023FB71EB1E092BDD
:101D800000F28A80DFE803F00A80837C88888888F4
:101D9000888610074CBF0C460126EDE75249514892
:101DA0004E4D05F014F80023FB71EB6A9A0705D538
:101DB0004E494C4805F00BF8002332E0EB6A002B4B
:101DC00001DA4B49F5E7EB6A5B00F5D5494945482F
:101DD00004F0FDFF6B69A26943F480736B61BFF38C
:101DE0004F8FBFF36F8F6B6932F8022C23F480732F
:101DF0006B61BFF34F8FBFF36F8F4DF602739A4243
:101E000008D0AB6ADBB273B3FA1D01212046FFF79D
:101E100013FF37E02368384A3248012104F00CFFF1
:101E20002368FA79DAB907F1080504F1200C206873
:101E300061682A4603C2083464451546F7D17A6AB8
:101E4000002E45D0C2F3080121B96FEA52226FEA91
:101E500042227A6207F108011846FFF7A1FD2837F0
:101E6000BD46BDE8F081AB6A13F47F4F04D0F91D85
:101E70000120FFF725FE05E0AB6AB3F5803F9BD359
:101E8000FFF786FE0346CCE7FA1D0021BEE7F91DE9
:101E90000020EEE719498CE7194A1A4B18F4F87F2D
:101EA000E8468AB018BF13466A461749C2E90513C7
:101EB0004FF400731384103D144BD56142F8103F6A
:101EC000084800234FF41151FFF77EFAC54673E727
:101ED00022F4FF7222F00102BBE700BF00ED00E038
:101EE000D6870000D87F0000018800001888000015
:101EF000398800004788000066880000828800005A
:101F0000BD870000A8870000A6880000040000012B
:101F1000044B5A6942F010025A615A6922F00802D1
:101F20005A61704700ED00E0EFF30880EFF309819C
:101F300001B57246FFF702FF01BD00BF0D4880F3F7
:101F4000088800200C49087001F070FC202080F304
:101F500011880A484FF40461401880F30988EFF3B0
:101F600014800221084380F31488BFF36F8F00F0C0
:101F7000A3F80000001C0020FE0A0020400E0020F4
:101F8000084B9B6883420BD1EFF3058343B1064BAB
:101F90005A6842F080525A605A6A22F400425A62E9
:101FA00003F0A0BBC00A002000ED00E015498A68DC
:101FB0004FF030001044EFF3098C80E8F01F202030
:101FC00080F31288BFF36F8F0F4F4FF000664A699E
:101FD0008A603E60D2F8A4000C4C2060D2F8A800C1
:101FE0000023C2F8A83080F3118804B5104600F031
:101FF00003F9BDE8044002F1300090E8F01F8CF3D3
:1020000009887047C00A002004ED00E0180900208C
:102010001EF0040F0CBFEFF30880EFF30980816915
:1020200011F8021C0229FFD001B5724604F0C4FE6B
:1020300001BD00BF40B2002807DB044A410901236B
:1020400000F01F00834042F82130704700E100E0BB
:10205000054B420900F01F0053F82220012303FA28
:1020600000F01040704700BF00E100E040B20028DF
:10207000A8BF00F1604001F10101B8BF064B4FEA73
:102080004111ACBF00F5614000F00F00C9B2B4BF10
:10209000195480F80013704714ED00E0044B054A12
:1020A00023F07F039360BFF34F8FBFF36F8F7047B1
:1020B0000000000000ED00E008B5FFF7EFFF0B4A5D
:1020C000D2F8883023F47003C2F88830EFF3148319
:1020D00023F0040383F31488BFF36F8FFFF738FCFA
:1020E000FFF742FC00F05EF802F0F6FD00ED00E0C4
:1020F00042F8203C009B42F81C3C0A49019B42F8F4
:10210000183C029B42F8143C21F001014FF080730F
:1021100042F8043C42F8081C0023203A0265C0F84B
:10212000A8307047310C00000A4A0346906878B125
:1021300013F1160FD0F8940005D0A0F140029A4296
:1021400005D8834203D2814228BF00207047002077
:10215000704700BFC00A002008B515460C4A0D4B59
:102160009060D0F8A4201A600E4600F045F82C4686
:1021700086F309880020044B98472046002100225E
:102180000023024C20470000E56D0000310C0000E8
:10219000C00A002018090020014B10221A61704764
:1021A00000ED00E0044800232021C2180133302B49
:1021B00082F80013F9D1704700E100E008B5EFF3B1
:1021C0000583064A103B02EBC30152F8330049680D
:1021D0008847BDE80840FFF763BC00BF947D00005E
:1021E000024B034A0348012100F08CB80000042090
:1021F00000000020D8800000D0F89420054B403A21
:102200001A60054A4021C3E901121846012100F075
:1022100083B800BF1C09002000000B1508B5034659
:102220001048D0F89020C2F30722013A934207D910
:102230000D480E4A012104F0FFFC6FF0150008BDA7
:10224000C0F898300A6822F01F021A4342F01002C8
:10225000C0F89C208A6842F00102C0F8A02018460D
:10226000EDE700BF00ED00E0D07F0000BD8800007A
:10227000F0B50E4685B01F4604460025B5420DDA7E
:10228000606810B397B1431E18420AD0104A114833
:102290002B46012104F0D0FC6FF01502104605B06A
:1022A000F0BD1F28F2D921680B42EFD123680193BA
:1022B00004F0BBFDA36801A90343D0B20393FFF769
:1022C000ADFF10F1160FE7D0421C01350C34D5E7F5
:1022D000E3880000D07F0000044B0522C3F894205F
:1022E000BFF34F8FBFF36F8F704700BF00ED00E06B
:1022F000BFF35F8F024B0022C3F89420704700BFEA
:1023000000ED00E010B5034C01232278FFF7B0FF89
:10231000207010BDFB0A002008B50B4A002312787C
:10232000FFF7A6FF10F1160F07D0084A0021D2F8D8
:102330009030C3F30723984200DB08BDC2F8980031
:10234000C2F8A0100130F2E7FB0A002000ED00E027
:102350002DE9F04357485849D0F890300D68C3F341
:1023600007239D4285B000F2A180FFF7C1FF4968B5
:102370000022954201F10C011AD1504C504F2570AA
:102380006846FFF7DFFADFF83C81DFF83C9106464C
:102390000025AE421FD1237846490020D1F8902075
:1023A000C2F3072293427BDBFFF796FF00204CE04D
:1023B000C0F8982051F80C3C23F01F03134343F05E
:1023C0001003C0F89C3051F8043C43F00103C0F8FE
:1023D000A0300132CDE7009800EB05114FEA051C53
:1023E000CB683B40B3F5000F44D00AD8B3F5001FCB
:1023F0002ED0B3F5800F34D0B3F5801F10D0013547
:10240000C7E7B3F1807F3ED0B3F1007FF7D150F83A
:102410000C3088684A6804F008FD40F4802009E028
:1024200050F80C3088684A6804F0FFFC40F088508F
:1024300040F43020039001A92078CDE90123FFF773
:10244000EDFE002828DA6FF0150005B0BDE8F08336
:1024500050F80C3088684A6804F0E7FC40EA08004D
:10246000E8E750F80C3088684A6804F0DEFC40EA7F
:102470000900DFE750F80C3088684A6804F0D5FCA2
:1024800040F08270D6E750F80C3088684A6804F053
:10249000CCFC40F08870CDE7237801332370AEE7A1
:1024A000C1F89830C1F8A000013377E74FF0FF3052
:1024B000CBE700BF00ED00E0E4800000FB0A002055
:1024C0000000F0FF0000081100000206F0B587B020
:1024D00007460E4614460021102268461D4605F0A8
:1024E0003BFB02238DF802302A46054B019321461F
:1024F0006846CDE9047603F085FC07B0F0BD00BF67
:102500004B6E000008B5024B1B689847002008BDC1
:1025100028090020034B044A1860937843F0020313
:1025200093707047280900201000002008B5064964
:10253000064821F00701C1F1005202F5802203F0A4
:10254000EAFE002008BD00BF872000202C090020E3
:102550000E4A0123C2F840354FF080424FF08051BF
:10256000C2F87835D1F83001082808D1D1F83411F3
:10257000052904D80648415C09B1C2F838364FF045
:1025800080430122C3F880250020704700E001400D
:102590001C89000020B1034B800143F00103184760
:1025A000704700BF50800000084B70B5C31A0D463D
:1025B00007499B10044659430648402204F059FC41
:1025C0002B4601462046BDE8704018474C090020C4
:1025D000B76DDBB6D47C000073B50C4C0C4A4023BD
:1025E000041B00930D460B460A49A410614306469E
:1025F000094804F069FC011E05DA30462B4602B09A
:10260000BDE87040184702B070BD00BF4C09002003
:10261000316F0000B76DDBB6D47C000010B5EFF36E
:102620001184202383F31288BFF36F8F074A136846
:1026300023F00201DB07116002D4012004F047FF00
:1026400084F31188BFF36F8F10BD00BF9C09002079
:10265000002270B5012104461046FFF707FD0F4820
:1026600001F06EFA0E4B984215D101F079FA266905
:102670000C49304604F0AAF900280BDB012535642B
:102680002469084904F11C0004F0A0F9002801DBCA
:10269000E564002070BD6FF00400FBE7A127000097
:1026A0000000AD0B048100001FB500220123CDE91D
:1026B0000223094ACDF800D06B46CDF804D004F0CF
:1026C00030FC002805DB4FF480420023684602F00E
:1026D0009FFB05B05DF804FB4F6F000030B4104B5A
:1026E0000C2202FB003301460020D3E90E5298630E
:1026F000EFF31180202484F31288BFF36F8F1C6CDA
:1027000004F0C00444F002041C6480F31188BFF399
:102710006F8F1DB12B46034830BC184730BC704743
:102720004C090020D47C000010B4EFF31182202368
:1027300083F31288BFF36F8F1748016841F00204DA
:102740000460C80707D482F31188BFF36F8F01209C
:1027500010BC01F017BA4FF08041D1F80C04D1F849
:102760000C14C907EFD5EFF3118083F31288BFF380
:102770006F8F0A490B6C03F0C00343F002030B6434
:1027800080F31188BFF36F8F82F31188BFF36F8FCF
:10279000002010BCFFF7A2BF9C0900204C090020BC
:1027A00010B1012804D07047034B1B6C5B0701D1AB
:1027B000FFF794BF704700BF4C0900202DE9F0419E
:1027C0003849BFF35B8F0746012251E8003F41E8DB
:1027D00000200028F9D1BFF35B8F33B93249334869
:1027E0004B60CB608A6004F004F97B1E012B2BD870
:1027F000012F07D14FF08043D3F81C3403F00303BB
:10280000012B21D005F050F80546F8B9284B1B786C
:10281000E3B14FF080430222C3F808230646DFF8F5
:1028200094804FF08044D4F81824D4F81834D2039C
:1028300015D503F00303012B01D0012F0FD155B3A0
:1028400086F31188BFF36F8FBDE8F081EFF3118637
:10285000202383F31288BFF36F8F0125DFE7ADB12B
:10286000304604F0D3FAD4F81835002BDBD1D4F875
:102870000421002AD7D0C4F80431D4F8043101234C
:10288000C4F81835C8F88031A360CCE700212120B6
:1028900005F0A3F8E7E74FF080430222C3F80423D2
:1028A000D2E700BF4809002038090020680900204D
:1028B000FE0A002000E100E008B5074804F04AFFE6
:1028C00038B10648FFF726FE0448FEF7ABF90020B2
:1028D00008BD6FF01200FBE7347D0000E128000026
:1028E0000A2838B5074D044604D1AB680D215B6852
:1028F00028469847AB6803485B68E1B29847204692
:1029000038BD00BF347D0000F0B516464268107B2C
:1029100001F01F0444EA4014106987B0002872D007
:10292000B6F5001F02F1100506D12146284604F035
:102930004EFE002007B0F0BD01A80027B6F5800FBD
:102940000197476039D1B3F1007F14BF05230423F9
:102950008DF804300023CDE904030393936823FA30
:1029600001F111F001010DF103073ED1B6F1A07F95
:102970003BD104F01F03620903F5E07328D0012A5C
:1029800047D1254A52F82330DB072ED43A46214658
:10299000284601F0E1FB214B98421CD0029703AA84
:1029A0002146284601F098FA1D4B98422ED101226B
:1029B0002146284601F028FCBBE7B3F1C06F05D0E3
:1029C000B3F1007F14BF01230223C1E70323BFE754
:1029D0004FF0A042D6E73946284601F00DFC104BD7
:1029E0009842DBD06FF00B00A4E73A462146284618
:1029F00001F0B2FB0A4B9842D1D19DF80310284652
:102A000001F0F2FBCBE76FF0850093E76FF0150064
:102A100090E751F82330FFDE000300500400AD0BB7
:102A20000000AD0B420970B5034602D0012A17D051
:102A300070BD0D4E326951680029F9D003F01F03B3
:102A400001250C689D400029F2D08A682A4002D0F6
:102A50004B68304698472CB1236821461C46F2E764
:102A6000024EE7E72346F8E7147D0000F47C0000FF
:102A700038B545682B69B3B11035284601F0AAFB7B
:102A8000044680B90146284601F080FB084B984275
:102A90000BD108492246284601F058FB2246052161
:102AA0000620FFF7E3FA002038BD6FF00400FBE7D3
:102AB0000000AD0B252A00002DE9F043466840F2E6
:102AC0000635D006337B87B002EA050554BFC2F352
:102AD0004010032001F01F07B5F5837F144647EA35
:102AE00043178DF8030045D00FD8062D18D007D80E
:102AF000B5B1022D40D06FF0150007B0BDE8F083EE
:102B0000B5F5807FF7D101250AE040F20222954217
:102B100034D0B5F5407F33D0B5F5007FEBD1022539
:102B20000123220303FA01F12CD57368C3F80815B9
:102B3000326982BB07F01F037F0929D0012F77D1AB
:102B40003E4A02EB830284F48033D2F80017C3F3C9
:102B50000043C4F3404444EA430421F4E16144EAFD
:102B6000800421F0070144EA05230B43C2F8003733
:102B70000020C2E70725D3E70425D1E70525CFE7E5
:102B80000325CDE7630344BF7368C3F80C15CFE793
:102B90004FF0A042D5E710360DF10202394630461B
:102BA00001F0DAFA14F4403F80460CD13946304641
:102BB00004F00BFD224B9845DAD19DF80210304607
:102BC00001F012FBD4E701AB4FF0000903AA39462C
:102BD0003046CDE90439CDE90199CDF80C9001F0EA
:102BE0007BF9174B984286D114F4003315D09DF829
:102BF00003308DF80E3084F48034C4F300444B4627
:102C000003AA394630468DF80C508DF80D4001F07E
:102C10001FFA0B4B9842CDD06DE7CDE9043303AAE0
:102C20000DF1030339463046039301F055F9F0E7FF
:102C300003F5E07352F82330FFDE00BF00030050BD
:102C40000000AD0BF7B50569466828600446FA2018
:102C500002F000FD306804F07DFD18B96FF012003D
:102C600003B0F0BD281D554904F0E3FD6568A86870
:102C700000BB286960BB63680026186899888DF8D6
:102C800007600DF106030DF1070204F0F6F90028C4
:102C9000E6DB9DF806305B098DF8063003F0030390
:102CA000032B22D04648474A012103F0BCFF6FF0B6
:102CB0008500D5E705F1080604F04CFD0028CDD0CD
:102CC0004FF4D011304604F09AF90028D1DAC7E762
:102CD000103504F03FFD0028C0D04FF4B011284655
:102CE00004F08DF90028C6DABAE765683346402259
:102CF0000121284604F0DCF980231A4601212846E8
:102D000004F0D6F90028ABDB40F6CD40002104F0FA
:102D100064FE052601272868A9888DF807700DF143
:102D200006030DF1070204F0A8F9002808DA42F2C0
:102D3000107002F08FFC013EEDD16FF073008FE751
:102D40009DF90630002BF6DB0023402201212846A6
:102D500004F0AEF96468237EA27F1B0103F07003C8
:102D600043EAC213627E920002F00C02134303F0A6
:102D7000FC03FC221A21204604F09AF90028FFF6F1
:102D80006FAFA27E1621204604F033FA0028FFF62A
:102D900067AFE27E1721204604F02BFA0028FFF6E9
:102DA0005FAFA07F00283FF45BAF01231A461D21CF
:102DB000204604F07DF900EAE07051E72972000036
:102DC000807F00006B89000002780B69012A08D01F
:102DD000022A08D04AB9064A5A6203F1140001F0E7
:102DE000E3BF044AF8E7044AF6E7044AF4E700BF01
:102DF0000000AD0B0100AE0B0200AE0B0100AD0BED
:102E00002DE9F04FD0F81090D0F8048085B0054639
:102E10000C461746029309F1040A4FF0FF324FF0B7
:102E2000FF33504601F0F4FF09F1140B0023002298
:102E3000584601F0EDFF404601F092FC7B1E002653
:102E40000393B74201D8002322E0039B217AB342C7
:102E500083BF237D83F00403C3F380030023019326
:102E6000029B0093D4E90023284600F08FF8034624
:102E700070B94FF480420023584601F0C9FF98B161
:102E8000404601F07DFC284600F06EF86FF0040328
:102E90004046029301F074FC504601F085FF029B0E
:102EA000184605B0BDE8F08FD9F82430034A9342A4
:102EB00004F10C04EAD10136C3E700BF0000AD0BFA
:102EC00098B5044640682346826900AF00F10801C6
:102ED00001F002FC0E4B984217D023686C4688B074
:102EE0006A460C49C2E905134FF4007393830A4BF9
:102EF00042F8103F094800234FF4E251FEF764FA0C
:102F00006FF00F00A546BD4698BD0020FBE700BF4F
:102F10000000AD0BB489000003000001A87F000091
:102F200008B5CA07436800690AD4C1F34202012AFE
:102F300009D0022A0FD00A4A0A48012103F073FE81
:102F40006FF0150006E01B684FF0CC72C3F8242523
:102F50000160002008BD1B684FF0CD62F6E700BF9E
:102F6000D4890000A87F000008B543681B68D3F827
:102F70000805D3F80C1501F009FD034B984214BF66
:102F80006FF00F00002008BD0000AD0B2DE9F041EF
:102F900086B00C4647689DF8348015460021122201
:102FA0000DF106001E4604F0D7FDBDF830208DF867
:102FB000052004F0010314F008028DF80430029695
:102FC000049509D0124A1348012103F02CFE6FF03A
:102FD000850006B0BDE8F081A10705D4B8F1000F67
:102FE00011D1002BF3D1202201A9384601F0E4FBD6
:102FF000094B984209D00B3398420CBF6FF00F0079
:103000006FF00400E5E74022EEE70020E1E700BFB3
:10301000E6890000A87F00000000AD0B036803F004
:103020001F025B09026004D0012B034818BF002077
:1030300070474FF0A0407047000300502DE9F04F5B
:10304000DFF8B4B185B01546824600EB810840F246
:10305000FF19D04503D1002005B0BDE8F08FDAF8A4
:1030600000305804C3F3C321C3F3080400F1BD804A
:10307000624A4C45515C4FEA136312D0222B1ED991
:103080004E2B40F0B580C5F8144503A80394FFF714
:10309000C5FF039B012606FA03F3C0F8083537463F
:1030A00054E0222B09D94E2B40F0A2804FF0FF3381
:1030B000C5F814350AF1040ACBE74FF0FF34222B90
:1030C00000F29680DFE803F012171D2023292094D8
:1030D000949494396394949494949494949466718D
:1030E00074779494947A8285888B8E00C5F80C4509
:1030F000631CCAD1DEE7C5F81445621CDAD000268D
:10310000CDE7C5F80845F3E7C5F81045F5E7631CBA
:10311000C5F80845CED0002604E0671CC5F80C456C
:10312000C8D0012603A80394FFF778FF039B01276B
:1031300007FA03F3C0F80C3508E0C5F80845002984
:10314000DBD1661CB6D0002637460621DAF80030FF
:10315000019303F40040002803A81CBF00270126A8
:103160000394FFF75BFF039C019B00EB8400C3F318
:10317000412CD0F800470B0243EA8C033B4304EA9E
:103180000B04234343EA4603C0F8003792E7C5F82F
:103190000C45D4E7C5F86045601CDAF8003089D0EA
:1031A000C3F30043002BBCD06FE7C5F86445F3E7D9
:1031B000C5F86845F0E7C5F86C45EDE7C5F8244566
:1031C000621C3FF477AF00270126BFE7C5F828450A
:1031D0008EE7C5F83045F3E7C5F83445F0E7C5F8A4
:1031E0003845EDE7C5F83C4582E76FF0150033E759
:1031F0006FF0850030E700BFF0F8FCFF0C8A00009C
:103200002DE9F041044647680D4604F04DFB88B1B6
:103210004FF02008EFF31186314688F31288BFF390
:103220006F8F606804F0F1F850BB86F31188BFF32C
:103230006F8FEFE71F4B1B78002BE9D04FF0200872
:103240006426606804F0E1F870B9012004F031F9F7
:10325000013EF6D10021212004F0BFFBF0E786F308
:103260001188BFF36F8FF5E7EFF31186314688F3CE
:103270001288BFF36F8F606804F0C7F80028EED0A3
:10328000BB691D706368BA691B680020C3F84425D8
:103290000122C3F84825C3F82001D3F82041C3F820
:1032A0005801D3F858019A6081F31188BFF36F8FEA
:1032B000BDE8F081FE0A0020F8B500220546012194
:1032C0000220FEF7D3FE0220FEF7B4FE6C68012157
:1032D000E06804F0CBF86B681A682369C2F82435FB
:1032E000617D237D0B43A17D0B43C2F86C356E6875
:1032F000D6E9004313F0010344D02F6907F1080019
:1033000004F0E3F82C4B984207D02C482C4A0121BA
:1033100003F089FC6FF00400F8BD387A04F10C0268
:1033200004F5907104F0C7F8387A012707FA00F025
:1033300000F09EFB0823C4F80035B369C4F8443597
:103340000023C4F84835A760D4F85831002BFBD0CF
:103350000021C4F800156D682C68E86804F086F850
:103360000823C4F800352A7A52B9EB69C4F8343519
:103370000123C4F83835C4F81021D4F81021236093
:103380000020C9E70822C4F80025B269C4F8442522
:10339000C4F848350123A360D4F82031002BFBD0BA
:1033A0000023C4F82031D4F820310123E3604FF426
:1033B0008073C4F80433C7E70000AD0BE87F00005A
:1033C000148A000070B5012383400E4ABFF35B8F5F
:1033D000DC4352E8001F01EA040542E80056002ED3
:1033E000F7D1BFF35B8F4FF4803282400648C0F8BC
:1033F0000823BFF35F8FBFF36F8F0B4214BF012011
:10340000002070BDE40900200010014070B40E4996
:10341000D1E90034D01AC31844F1000422F07F46E9
:10342000C1E90034A6F50013B3F5400F09D2074BEC
:103430001B681A0A1B069C19054B42F10005C3E9DB
:10344000004570BC02F064BBC8050020E8090020FC
:10345000D005002011B3BFF35B8F0123104A8340D6
:1034600052E800CF4CEA030C42E800C10029F7D132
:10347000BFF35B8F0B4A4FF480338340C2F80433B1
:10348000094BBFF35B8F1B68BFF35B8FC340DB0748
:1034900042BF064B4FF40032C3F80021704700BF13
:1034A000E409002000100140E009002000E100E0F4
:1034B0000D4B1868010A0006BFF35F8F0B4BD3F862
:1034C0000435181841F10001B3F5801F0AD2084BEA
:1034D000D3E90023904271EB030303D210F1807013
:1034E00041F10001704700BFE809002000100140D1
:1034F000D00500202DE9F04F85B016461F469DF8F7
:1035000040A00446FFF75EFF0190FFF7D1FFB042F5
:1035100071EB070354D23E4B301A67EB010198421E
:1035200071F100014FD23B4B03EB0413D3E90223AB
:103530009F4208BF96425ED037494FF4803804F16D
:10354000500508FA04F8AD00C1F848832046ADB232
:1035500003F09EFF26F07F4B05F1804504F5A8732C
:1035600005F58835DC464FF003090293029A2CF0EA
:103570007F4341F82230C1F84483D1F80435274A0B
:103580006FF00200C01A604420F07F40904232D9B0
:10359000286868B1D1F804350393A3EB0B0020F041
:1035A0007F40B0F5000F26D9204603F071FF039B42
:1035B000BAF1000F07D109EB030C09F10109D5E7B6
:1035C000BAF1000F09D06FF0150520460199FFF7F9
:1035D00041FF284605B0BDE8F08F0123104ABFF334
:1035E0005B8FA34052E8000F184342E80001002916
:1035F000F8D1BFF35B8F07490E98230101EB04124A
:10360000C8500F9B5360C2E902670025DDE700BF89
:1036100001008000B805002000100140FDFF7F0080
:10362000E00900207FB51C4C1C4BC4F80833C4F8DB
:1036300048331B4B00254FF0FF304FF0FF31C4F8EB
:103640000855C3E902014FF48033C4F80433154B25
:1036500002264FF400320121C4F804631120C3F89C
:1036600080212A46FEF702FD1120FEF7E3FC0E4AF8
:103670000123A360236013600C4B0D4A0093CDE936
:10368000015500232846FFF735FF3046FFF796F82F
:10369000284604B070BD00BF0010014003000F00B9
:1036A000B805002000E100E0E40900200D3400002E
:1036B000FFFF7F002DE9F7432F4CD4F8043399071F
:1036C0000BD5D4F8043143B12C4A0023C4F804319B
:1036D000D4F80431136801331360D4F80433DA03E7
:1036E00029D5BFF35B8F264B53E8002F22F0010151
:1036F00043E800100028F7D1BFF35B8FD30702D453
:10370000D4F84031BBB10025C4F84051D4F8403161
:10371000FFF7CEFEEFF31182202383F31288BFF36D
:103720006F8F184BD3E90267B042B94106D282F3DA
:103730001188BFF36F8F03B0BDE8F0834FF0FF38FF
:103740004FF0FF39C3E90289D3E900101D604FF43F
:103750008033C4F84833C4F84051D4F8403182F380
:103760001188BFF36F8F0029E5D0009032463B46A9
:1037700028468847DFE700BF00100140E809002025
:10378000E0090020B805002030B5431C124C85B07C
:1037900005D08442A8BF0446012CB8BF0124FFF71E
:1037A00087FE0E4B0C4DD3E90013401AB0F5000F05
:1037B00010D22218AA4228BF2A4652184FF0000001
:1037C00007490091CDE9010043F10003FFF792FEA4
:1037D00005B030BD2A46F0E7FFFF7F00C805002096
:1037E0000D34000008B5FFF763FE024B1B68C01ADA
:1037F00008BD00BFC80500204FF08053D3F830212A
:10380000082A06D1D3F83431052B02D8024AD05CFD
:1038100070470020704700BF578A0000024AD2F864
:103820000034002BFBD0704700E0014010B54FF092
:103830008053D3F83021082A4ED14FF08042002126
:10384000C2F80C11C2F81011C2F8381502F5404246
:10385000D3F80414C2F82015D3F80814C2F82415BC
:10386000D3F80C14C2F82815D3F81014C2F82C158C
:10387000D3F81414C2F83015D3F81814C2F834155C
:10388000D3F81C14C2F84015D3F82014C2F844151C
:10389000D3F82414C2F84815D3F82814C2F84C15EC
:1038A000D3F82C14C2F85015D3F83014C2F85415BC
:1038B000D3F83414C2F86015D3F83814C2F864157C
:1038C000D3F83C14C2F86815D3F84014C2F86C154C
:1038D000D3F84434C2F87035FFF78EFF18B13A4B75
:1038E0003A4AC3F88C26FFF787FF18B1384BFB2202
:1038F000C3F81825FFF780FF70B14FF080414FF0FB
:103900008053D1F8E42ED3F8583222F00F0203F09E
:103910000F031343C1F8E43EFFF76EFF20B12D4BB8
:103920004FF40072C3F840264FF08053D3F8303183
:10393000082B1AD14FF08043D3F80024D20744BF9C
:103940006FF00102C3F800244FF08053D3F83431F4
:10395000052B02D8204AD35C3BB14FF01023D3F89B
:1039600008224FF08043C3F858254FF01023D3F8B6
:103970000022002A03DBD3F80432002B22DA174995
:1039800001234FF01020C1F804351224FFF746FF41
:10399000C0F80042FFF742FFC0F80442FFF73EFFC5
:1039A0000023C1F80435FFF739FFBFF34F8F0C49EF
:1039B0000C4BCA6802F4E0621343CB60BFF34F8F35
:1039C00000BFFDE710BD00BF00500040488103006C
:1039D00000F0004000900240518A000000E00140E9
:1039E00000ED00E00400FA0530B50468CCB1BFF387
:1039F0005B8FB4FA84F3C3F11F03DBB201229A4058
:103A000024EA020250E8005FA54204D140E8002CFD
:103A1000BCF1000FF6D1BFF35B8FE6D102480B700B
:103A200030BD0248FCE700BF0000AD0B0200AD0B4B
:103A300010B50368CB40DB0714D401238B40026828
:103A4000BFF35B8F43EA020150E8004F944204D178
:103A500040E8001CBCF1000FF6D1BFF35B8FEED144
:103A6000014810BD0148FCE70000AD0B0400AD0BA0
:103A7000014BC3F80405704700F00140F7B5054657
:103A8000F8B101281BD104224FF4807301464FF096
:103A9000804003440244C0F808130026012111604D
:103AA0001E608D421B688DF8071008BF0DF10706D8
:103AB00042F210744FF0804745B1012D29D003B078
:103AC000F0BD0C224FF482730221E0E7D7F81834DE
:103AD00003F4803366B9002BF1D0012003F0E9FC38
:103AE000013CF3D1EBE703F0E4FC013CE4D1E6E771
:103AF000D7F8182402F003023260002BDFD09DF8C3
:103B000007000128EFD0012DD9D10C4B00225A71AA
:103B1000D5E7D7F80C3403F480333EB9002BF4D04A
:103B2000012003F0C6FC013CF3D1C8E7D7F80C2410
:103B300002F001023270002BE1D1E6E7EC0900202F
:103B4000044B1A7922B9012218609A800248704702
:103B500002487047EC0900200000AD0B0C00AD0BD3
:103B600008B5074B1B682BB10020FEF771FA08B9A6
:103B7000FEF760FA4FF080430022C3F8182508BD15
:103B8000EC09002010B510B1012843D010BD4FF052
:103B90008043D3F81814D3F81824C80321D502F0B1
:103BA0000303012B04D013B10020FFF767FF0023AC
:103BB0004FF080420220C2F8183508224FF4827379
:103BC00003F180430021196002F180421C68012446
:103BD0001460154A12680AB34FF08043C3F8040317
:103BE000D4E7D3F81424D107E1D5D3F81C249207E5
:103BF000DAD40D4A12681AB10222C3F80423C5E7C9
:103C0000D3F80421002AFBD00022C3F80421D3F802
:103C10000431BBE700224FF48073D1E71A68002A11
:103C2000FCD019601B68B1E7EC090020F8B54FF033
:103C300080431C4ED3F804430125002704B9F8BD86
:103C4000B4FA84F0C0F11F00830003F580739BB2C7
:103C500003F1804305FA00F2196892B224EA0204E3
:103C60000029EBD01F601B684FF08043012AC3F886
:103C7000082305D0022A08D03368C0B29847DDE790
:103C80007379002BDAD17271F6E7D3F81814D3F8F0
:103C900018148907F0D1C3F81855C3F804239D60A0
:103CA000CCE700BFEC090020036803F01F025B09AA
:103CB000026004D0012B034818BF002070474FF06A
:103CC000A040704700030050034A430900F01F0062
:103CD000D35C1844C0B270475D8A000070B50546D9
:103CE000FFF7F2FF0C4C08300E4634F81030DA05BE
:103CF00008D5C3F3432304EBC302284654F83330FA
:103D000052689847A3682BB1E26831462846BDE85F
:103D10007040184770BD00BFF409002008B5FFF7D8
:103D2000D3FF034B083033F81000400B08BD00BF31
:103D3000F409002008B5FFF7C7FF034B083033F83C
:103D40001000C0F3400008BDF409002008B5FFF7DB
:103D5000BBFF034B083033F81000C0F3401008BD20
:103D6000F4090020034611F0010010B5CCB20DD1CA
:103D7000A207C4F3400012D5094AD2F820055860C2
:103D8000C2F82005003818BF012008E04FF0A0411C
:103D9000D1F820251A60C1F82025002AE8D010BDEE
:103DA0000003005010B5FFF78FFF124A083032F8B9
:103DB0001030D9051CD5C3F3432123F4F85322F85E
:103DC000103002F10E04002034F8023F13F4807F1B
:103DD00003D0C3F3432399420AD001303028F3D1F2
:103DE000002342F831300448BDE81040FFF720BE00
:103DF00010BD00BFF40900206C0A002001F18051C1
:103E0000F0B501F5C2510446114A00208900012590
:103E100006468A420BD10F4BD3F87C2132B10022E7
:103E2000C3F87C21D3F87C3140F00040F0BD02F1B2
:103E30004043A3F5C2439B0805FA03F31C4204D098
:103E4000176817B11660176818430432E1E700BF1E
:103E50000061004000600040F7B506460846FFF7E5
:103E600033FF194F00F108050C4637F81530DB0712
:103E700027D5304603F085FB2046FFF767FF40B1AA
:103E80002046FFF74BFF316800F5A270002341F890
:103E900020302046FFF786FF002301A827F81530C1
:103EA0000194FFF701FF019B00EB8300074BD0F863
:103EB0000027134043F00203C0F80037044803B062
:103EC000F0BD0448FBE700BFF4090020F0F8FCFF58
:103ED0000000AD0B0400AD0B2DE9FF4116468046F6
:103EE0000846FFF7F1FE0C463168054609B3204647
:103EF000FFF720FF18B12046FFF728FF10BB002373
:103F0000CDE900338DF80E308DF80F300DF10F0232
:103F10000B4620460DF10E0103F0DBFA484A05F18D
:103F2000080132F8113023F0020343F0010322F8B4
:103F3000113073685BB320461F785968FFF7FAFEAB
:103F400010B1C9B13F4825E03D4A05F1080C32F8EF
:103F50001C3023F02003DB04DB0C22F81C3059B1A9
:103F6000032FEFD87168D8F8000049680978A7B91D
:103F700001F5A27140F82170314A05F1080132F8CB
:103F8000113023F01C0343EA870322F81130B36891
:103F90006BBB2D4804B0BDE8F08100EB810043EA23
:103FA0004133D0F810E52EF0030EC0F810E5D8F834
:103FB000000000EB810E43F02003DEF8100522F82C
:103FC0001C3020F44F3020F44070CEF81005200251
:103FD000DEF8108500F47C5040EA074040EA080013
:103FE000CEF8100502EB4100A0F87C40C4E7D3E90D
:103FF00000672046FFF7D6FE002ECAD0104CD4E949
:104000000023964203D19F4201D1002209E00F48CC
:104010000DF10F01FFF7E8FC0B4B9842BAD19DF868
:104020000F2044F8326004EBC20308355F6034F8B7
:10403000153043EA422343F4807324F81530A8E78F
:10404000F40900200400AD0B0000AD0B6C0A002049
:104050002DE9F0430C4685B08046204611461E46A9
:10406000FFF732FE054629B32046FFF763FE18B975
:104070002046FFF76BFE18BB314F05F1080937F8F2
:10408000193013F01C0F02D04B78012B18D00123EC
:104090008DF80F300023CDE900134A1C8B1C2046FD
:1040A0000DF10F0103F015FA37F8193043F003034F
:1040B00027F81930002E41D02046FFF73BFE18B9F3
:1040C000204805B0BDE8F08396F800C0D8F800306D
:1040D0001B4F0CF5A272002143F8221005F10802D3
:1040E00037F8121021F02001C904C90C27F812106A
:1040F00075781DB3D8F80000B67800EB8C002D045D
:10410000D0F8103523F4991323F4F853C0F8103580
:10411000230203F47C5305F440353605D0F810E54E
:104120002B4306F4801641EA4C31334341F0200121
:1041300043EA0E0327F81210C0F810350248C0E712
:10414000F40900200400AD0B0000AD0B014BC3E9E6
:1041500002127047F409002010B508461446FFF714
:10416000F5FD50B10846FFF7AFFD054B083033F8B9
:10417000103004485B0B237010BD0348FCE700BF00
:10418000F40900200000AD0B0400AD0B70B50E4C1F
:1041900094F88C500646A5B96022294604F1100017
:1041A00003F0DAFC3068C0F87C51D0F87C3140F381
:1041B0000730FDF73FFF0123044884F88C30A367E4
:1041C00070BD0348FCE700BFF40900200000AD0B00
:1041D0000C00AD0B034B93F88C00003818BF012086
:1041E000704700BFF40900200079024B03EB800008
:1041F000FFF71EBC480000200079024B03EB800053
:10420000FFF7F2BB48000020F7B505460846164602
:10421000FFF79CFD0C462968F0B12046FFF78AFDA8
:104220000746C8B92046FFF779FD04B2A40004F59B
:1042300080728F508A5829682144D1F8102542F0A5
:104240000102C1F810252EB12968012202FA00F3FB
:10425000C1F8043303B0F0BDD1F80433002BA4BF80
:104260004FF00043C1F804332046FFF72DFD0F4BFC
:10427000083033F81030C3F38203042B12D0052B1F
:1042800012D001A80194FFF70FFD019AD0F8103564
:10429000D34003F00103991C204603B0BDE8F04071
:1042A00003F060B90321F7E70221F5E7F4090020E4
:1042B0002DE9F04F654BD3F80403C0B287B0082155
:1042C00040F00040FFF79AFD051E2BDA0023032182
:1042D00004A8CDE90433FFF745FDDFF874A10DF123
:1042E00010084FF000094FF0010B1AF8013B594933
:1042F000DA0803F007038A5C22FA03F3DA071CD416
:1043000008F10408B9F1000F14D000214FF000406B
:10431000FFF774FD032104A8FFF724FD0028DCD17A
:1043200025F00045494E4C4F0124002D78D107B0AF
:10433000BDE8F08F4FF00109D7E7484B4B4400939D
:10434000D8F800100029DBD0009B91FAA1F11C786D
:10435000B1FA81F141EA44142046FFF7B5FC3E4B27
:104360000394083033F81070C80801F0070118F8FA
:1043700000200BFA01F122EA0102BB0808F8002034
:1043800003A80193FFF790FC039A019B02F5E072EA
:10439000C7F3820650F822205B073746C2F301427A
:1043A00023D520463946D6B2FFF798FC03A80394DC
:1043B000FFF77AFC039B03F5E07350F82330C3F357
:1043C00001439E4207D10021204603F0CBF831463D
:1043D000204603F0C7F803A80394FFF765FC039B8E
:1043E0000BFA03F3C0F82035AAE7022A0CD1032107
:1043F000204603F0B7F806F00503012BEBD1394650
:104400002046FFF76BFCE6E702212046019203F00D
:10441000A9F8032EF3D0019A032ADCD1022EEDE78E
:1044200095FAA5F3B3FA83F304FA03F225EA020539
:1044300003F5A27207EB430356F82210B3F87C0091
:10444000C1F30141FFF74AFC6FE700BF0060004085
:104450006D8A000024820000F40900206D8A0000AB
:1044600001460148FFF7C0BA4C00002030B500F00B
:104470001F04400911D0012812D10C4800EB840020
:104480001B02D0F800570A4C43EA82022C4042EA51
:1044900041012143C0F8001730BD4FF0A040EDE7C7
:1044A00004F5E074002353F82430FFDE00030050CD
:1044B000F0F8FCFFCB7B10B433B9D1E900420368BC
:1044C000C3F80845C3F80C2503688A68C3F8242597
:1044D00003793C225343054AD3582BB1006810BCE2
:1044E00040F30730FDF7A6BD10BC7047840A0020DA
:1044F00013B53B4B01930023C0F80431D0F80421DD
:10450000C0F82431D0F82421C0F81C31D0F81C2187
:10451000C0F80831D0F80821C0F800324B6381F8A8
:104520002F300123036291F82D209A4218BF836037
:104530004B6B8A6A934204460ED24A6AD35CC0F837
:104540001C350B6803B340F286238B608B682548CB
:10455000C4F8043302B010BD91F82C3013B101231C
:10456000C361EEE70B6A13F0400F4FF0010316BF73
:10457000C361436181F82D30E3E7204603F029F859
:1045800028B1019B013B0193019B002BF5DC91F8C5
:104590002F305BB91348019B002BDBDC0023C4F8F0
:1045A000003505231048C4F80035D3E7D4F8C434E7
:1045B000C4F8C4348BB10D4A0B4813F0010F18BF77
:1045C000104613F0020F02F1010218BF104613F05B
:1045D000040F074B18BF1846DDE70348DBE700BFB1
:1045E000A08601000000AD0B0100AD0B0000AE0B7A
:1045F0000200AE0B13B5334B01930023C0F8043116
:10460000D0F80421C0F82431D0F82421C0F81C319E
:10461000D0F81C21C0F80831D0F808214B6381F88C
:104620002F308B6A012B044617D10B6A5B0614D41A
:104630000223C4F800320123236291F82D20022ABC
:1046400018BF23600B688BB140F286238B608B68A8
:104650001D48C4F8043302B010BD0123E9E7204629
:1046600002F0B7FF28B1019B013B0193019B002B96
:10467000F5DC91F82F305BB91348019B002BEADC85
:104680000023C4F8003505231048C4F80035E2E7DC
:10469000D4F8C434C4F8C4348BB10D4A0B4813F0B9
:1046A000010F18BF104613F0020F02F1010218BFEC
:1046B000104613F0040F074B18BF1846DDE70348F8
:1046C000DBE700BFA08601000000AD0B0100AD0BD1
:1046D0000000AE0B0200AE0B2DE9F84390F80490F9
:1046E0001C4E07463C2000FB09F035180C4695F897
:1046F0002E1061BBA96032506B6085F82D1085F8D3
:10470000311085F83010CCB1637B85F8383094F8DF
:104710000E8085F83980B8F1000F0BD12068062390
:1047200003224146FFF7A2FE6068062303224146AA
:10473000FFF79CFE21463846FFF7BCFE3C2303FBF7
:1047400009660548012386F82E30BDE8F883034842
:10475000FBE700BF840A00200000AD0B0C00AD0B8E
:10476000036802790521C3F80015044B3C2101FBC5
:104770000233022283F82E20704700BF840A0020F3
:1047800003680B4A0179C3F80823D3F8002222F00A
:104790000302C3F800220022C3F80025054B3C2089
:1047A00000FB0133012183F82E1083F8302070477D
:1047B00086420400840A00202DE9F047314F047935
:1047C000D0F800903C2303FB04730D4693F82D3082
:1047D000012B944604D10B78012B06D12A4811E015
:1047E000022B02D10B78012BF8D13C26274BC9F8BC
:1047F000083306FB047696F830302BB1B3682448B2
:10480000C9F80433BDE8F0878CF00403C3F38003D8
:1048100086F83030C6F820C0A846B8E80F0006F188
:104820000C0EAEE80F00D8F80030CEF800306B6800
:10483000B362EB6873626B78C9F888352B78C4EB88
:10484000041A012B07EB8A0A17D09BB9CCF3401C42
:104850003C2303FB04735146484683F82CC0FFF702
:1048600047FE3C235C433A193B59002BCAD182F8DE
:104870003030C7E74FF0010CEAE751464846FFF7F2
:10488000B9FEEEE7840A00200500AD0B8642040065
:104890000B00AD0BF0B5324C324887B0214602F028
:1048A00098FE002859D194F82F70FFB9227B931EEF
:1048B000012B1BD8606AA369984217D1E369636230
:1048C0006369A362236A274884F82D70C3F34013F9
:1048D000032A84F82C3004D107B0BDE8F040FFF77C
:1048E00007BE07B0BDE8F040FFF784BE1E4E0FCEF6
:1048F00001AD0FC533682B6047B31A4AD2F8C434F0
:10490000C2F8C43413F0020106D001238DF8003040
:10491000002384F8303007E013F0040209D00223AA
:104920008DF8003084F83010D4E90031684698479B
:1049300013E013F0010305D003238DF8003084F851
:104940003020F1E704228DF80020E2E7236A8DF899
:1049500000705B0784F83070E6D507B0F0BD00BF8B
:10496000840A002000300040900A0020036803F011
:104970001F025B09026004D0012B034818BF00200E
:1049800070474FF0A040704700030050F7B506464F
:1049900002F0B7FE084602F0B4FE01A80196FFF748
:1049A000E5FF019B2E4D00EB83000C46D0F800374D
:1049B000019440F20D612B400B43C0F8003701A871
:1049C000FFF7D4FF019B00EB83000127D0F80037ED
:1049D0002B400B43C0F80037042002F06AFD092584
:1049E00001A80194FFF7C2FF019AD0F81035D34017
:1049F000DB0715D401A80196FFF7B8FF019B07FA62
:104A000003F3C0F80C35042002F053FD304602F0E9
:104A100078FE013D042002F04CFD15F0FF05DFD1CA
:104A200001A80194FFF7A2FF019A01239340C0F867
:104A30000C35042002F03DFD204602F062FE042009
:104A400002F037FD01A80194FFF790FF019AD0F81A
:104A500010350448D34003F00103C01A03B0F0BD81
:104A6000F0F8FCFF0100AD0B10B50446FCF7DCFBD1
:104A70000348044A012102F0D6F8204602F075FEF0
:104A8000D87F00006F8A00002DE9F843044600AF8C
:104A90000D46EFF31188202383F31288BFF36F8F45
:104AA0000428294A98BF294B9668117C94BF53F873
:104AB0002030274BE9468AB06A462648C2E90731CA
:104AC00040F201339384244BC2E9050442F8103FBD
:104AD000224800234FF43151FCF776FCCD4645B116
:104AE000EB69C3F3080323B11D4A1C48012102F0FE
:104AF0009AF82EB1304602F0DDFE08B1037803B912
:104B00001848E9468AB06A46174BD061C2E90536B3
:104B100040F201331384154B42F8103F00230F4835
:104B20004FF41151FCF750FC2946CD462046FFF7C3
:104B30009BFF88F31188BFF36F8F3046FDF720FA93
:104B4000BD46BDE8F88300BFC00A002028820000EF
:104B50007E8A0000948A000005000001D87F0000D2
:104B6000BC8A00008C8A0000DD8A0000040000017D
:104B700038B50A4B53F82040013053F82050A54275
:104B800000D838BD606830B1037FDB0701D402F084
:104B9000C9FD0834F3E723689847FAE73C82000030
:104BA00070B52A4B2A4C2B4D012286B003201A7077
:104BB000FFF7DEFF01F0DEF80420FFF7D9FF2646FD
:104BC000AE4204F1300410D300F074FC204C224EAD
:104BD000AC4226D300F082FCFBF704FC1F4A137B97
:104BE00023F00103137306B070BD54F80C3C059319
:104BF00054F8103C049354F8143C039354F8183CB4
:104C0000029354F81C3C019354F8203C009354E95F
:104C10000A2354E90C0100F079FA54F8303C5E653F
:104C2000CDE7D4E90A23B3F1FF3F08BFB2F1FF3F5C
:104C300005D052EA0301206803D100F029FD303489
:104C4000C6E73146183000F0D3FEF8E7FE0A002030
:104C5000147F0000147F0000A77900008806002060
:104C600070B5174E174D184986B0B02303FB006688
:104C7000164B059301220F23CDE903320023CDE922
:104C80000133142303FB005504464FF4C07000FBAE
:104C900004110F4B00954FF4A072304600F036FA25
:104CA000737B0C4AEE6023F0040373734FF40463C8
:104CB00004FB033313442C746B6006B070BD00BF5B
:104CC000D8050020C00A0020801600203F8B00007D
:104CD0007B770000400E0020BFB50020FFF748FFA3
:104CE000294B83F30888294C294F636943F40073E7
:104CF00063610025E02384F82230E5772576657628
:104D0000A57684F82050636A43F4E023636284F854
:104D10002350FDF7FDF8FDF73FFA4FF0FF33A36294
:104D2000E362FDF715FBFDF75BFAFCF7D9F91948CB
:104D3000194C00F08DFA0120FFF71AFF0220FFF74F
:104D400017FF00F0FFFB154B15495C61154B0593F0
:104D50000123CDE903534FF480623B46CDE9015571
:104D60000095204600F0D2F9627B064622F004024C
:104D70002046627302F0DAFD2846FFF771FF3A46DB
:104D800031462046FDF7E8F98016002000ED00E0EE
:104D9000A14B00003807002088060020C00A002030
:104DA00000180020D782000070B5EFF31186202391
:104DB00083F31288BFF36F8F0468A0421BD0D4B175
:104DC000D4E9003213605A60637B002523F00203AC
:104DD0006373C4E90055A56004F1180002F058FEA1
:104DE0002046C4F8AC5002F0A1FD31460748BDE8AA
:104DF000704000F039BBD0E902329A4218BF01334B
:104E0000836086F31188BFF36F8F70BDFF0A0020A7
:104E100013B5EFF31181202484F31288BFF36F8F51
:104E2000846844B1013C846081F31188BFF36F8FC3
:104E3000002002B010BD52EA030406D181F31188AC
:104E4000BFF36F8F6FF00F00F3E7CDE90023024649
:104E5000014800F0E7FAECE7FF0A00202DE9FF41E6
:104E60004F4E04462027EFF3118887F31288BFF3D3
:104E70006F8FD4F8B450F5B9022104F1CC0002F0E0
:104E800093FC002868D004F1C405002201212846C3
:104E900002F0C4FD0028F8D1002302934FF0FF3246
:104EA0004FF0FF33CDE90023414604F1BC023D48F9
:104EB00000F0BAFCD7E7D4F8B8202B68C4F8B430B7
:104EC000954208BFC4F8B830D4F8CC3043F00203A0
:104ED000C4F8CC30EB6823F0040343F00103EB602B
:104EE0006B6888F31188BFF36F8F28469847EFF3FC
:104EF000118887F31288BFF36F8FEB68D80623F011
:104F0000010236D4EA60EB689A0716D5306823F0C0
:104F10000203EB6088B10368002170B142689542DA
:104F200035D1036869BB72683360824200D1736017
:104F3000002340F8083BFFF737FFD4F8CC3023F0CC
:104F40000203C4F8CC3088F31188BFF36F8FDB0500
:104F500089D400F0FFFA86E7D4F8CC30D9069BD587
:104F6000C4F8CC0088F31188BFF36F8F04B0BDE89C
:104F7000F08123F01103EB6005F11000FFF714FF3F
:104F8000C1E70B607368834208BF7160D0E723B14B
:104F90001A68014618461346BFE71A46F9E700BFEC
:104FA000E40A0020FF0A0020F8B5C3689A07044607
:104FB0000F46C3F340062ED45B071CD40B680BB915
:104FC00083680B60E368DD0744BFA3683B603D680E
:104FD0004CBF02260126002D3CD0204B9A68D5F804
:104FE000B0309A420AD0D5F8CC30D807C3F380024B
:104FF00014D46FF0120600233B6025E002F054FC4D
:10500000D5F8CC300028F0D1D907C3F3C002F0D5D1
:1050100052B15B0708D46FF00F06ECE7002AFAD113
:10502000C3F3C003002BF6D100232360D5F8B830BA
:1050300063B9C5E92D44284602F0C1FBE36843F09B
:105040000403E3603B68A3603046F8BD1C60C5F80C
:10505000B840F0E76FF01506CDE700BFC00A0020AA
:105060000146014802F001BC08080020F0B589B0F3
:1050700004460020C4E92D000E9D04F1BC00C4E9E3
:105080002F0004F1C400C4E9310055B32879002889
:1050900040F2011008BF0120C4F8CC0000204FF0FE
:1050A000FF364FF0FF37CDE90330CDE90100CDE900
:1050B00006670D4B0094204600F09EF855B1296814
:1050C00011B1204600F012F86B791BB1237B43F03D
:1050D00001032373204600F0DBFAC4F8B04009B0A6
:1050E000F0BD0120D8E700BF5D4E000010B50446BA
:1050F00008B9054B9C681F2204F1740002F034FDCE
:10510000002084F8930010BDC00A00202DE9F04F64
:10511000073285B022F0070204461E467F3200F1B6
:105120005803C0E9163322F03F02129B237300207C
:105130000D46119BDDF838A0139FA06004213F2A83
:10514000C4E906006173A373E07305F14009A2F19D
:10515000400B05D880F31188BFF36F8F084602DF3C
:1051600005EB020841462046FCF77AFC0730109B0D
:1051700020F00700C4E9259BC4F89C0002930F9B14
:10518000A8EB000BCDE900A35A463346294620463A
:10519000FCF7AEFF0F9BA3664FF00008109BC4F80E
:1051A0005480C4E9186AE366EFF31182202181F389
:1051B0001288BFF36F8F0F4D296A21672C6282F32B
:1051C0001188BFF36F8F8FB11F22394604F174002D
:1051D00002F0CAFC84F89380AB680BB1D3F8A0301E
:1051E000C4F8A030584605B0BDE8F08F84F874705C
:1051F000F2E700BFC00A0020F0B587B00025059592
:10520000109D04950F9D03950E9D0295DDE9127684
:105210000D9D01950C9D00950446FFF777FFB6F1B3
:10522000FF3F08BFB7F1FF3F05D056EA070305D19E
:10523000204600F02DFA204607B0F0BD3A4633462E
:1052400004F11800014900F0D3FBF4E7A77900004E
:1052500040F2011383810023C0E92533C0F8A03058
:10526000014B9860704700BFC00A00200A4A93684B
:105270006FF00A01C3F8AC100849C3F8A8004B68E6
:1052800043F080534B60002383F31188BFF36F8F8B
:105290009368D3F8AC007047C00A002000ED00E02E
:1052A00070B590F90D20437B002A36DBD90634D146
:1052B0001B4C63F07F032246437352F8183FE169A9
:1052C000934207D1C0E900210860E06111E09942F2
:1052D000F8D01B68002BF5D090F90E5093F90E60B2
:1052E000B542F4D0AE42F2DD5968C0E90031086041
:1052F0005860A569954200D005B9E568A3685A7B56
:10530000D20604D1DA897F2A01D9AA6932B1AB4227
:1053100002D0284600F0C8FA656170BD6361FCE701
:10532000C00A002038B590F90D20437B002A0146C1
:1053300004DA03F07F03437302F0BEFA0D4D2A46F0
:10534000AB6852F8184F944200D004B9EC688B4215
:1053500007D05A7BD20604D1DA897F2A01D9A26903
:105360002AB1A34202D0204600F09EFA23466B6188
:1053700038BD00BFC00A0020B3F1FF3F08BFB2F143
:10538000FF3F03D00249183000F032BB704700BF26
:10539000A779000070B590F90D20437B002A0146E3
:1053A00004DA03F07F03437302F086FA4B7B1C4C54
:1053B00063F07F0322464B7352F8183FE069934233
:1053C00007D1C1E900200160E16111E09842F8D005
:1053D0001B68002BF5D091F90E5093F90E60B54281
:1053E000F4D0AE42F2DD5868C1E900300160596086
:1053F000A569A368954200D005B9E5688B4207D03E
:105400005A7BD20604D1DA897F2A01D9AA692AB146
:10541000AB4202D0284600F047FA2B46636170BDCC
:10542000C00A0020F8B50E4B0C4611460D4A98688C
:105430001060DDE90667EFF31182202282F3128803
:10544000BFF36F8F9D68284602F048FA284632461F
:105450003B46FFF791FF2046BDE8F840FFF706BF47
:10546000C00A0020EC0A002049B9EFF3058030B9EA
:10547000054B5A699B689A4201D0FFF7F7BE81F34A
:105480001188BFF36F8F7047C00A0020034648B9E8
:10549000EFF3058232B9064A51699268914201D010
:1054A000FFF7E4BE83F31188BFF36F8F704700BF2F
:1054B000C00A0020EFF31181202383F31288BFF389
:1054C0006F8F054B9A68D37B013BD37381F31188AF
:1054D000BFF36F8F704700BFC00A002070B5EFF3B5
:1054E0001186202383F31288BFF36F8F144DAB68AE
:1054F000DA7B0132DA732A4652F8184F944200D010
:1055000004B9EC685A7BD20604D1DA897F2A01D922
:10551000A2692AB1A34202D0204600F0C5F9234671
:105520006B6186F31188BFF36F8FEFF31180202337
:1055300083F31288BFF36F8FBDE87040FFF7A6BFFB
:10554000C00A0020024B03F11802C3E9062270478B
:10555000C00A002070B5EFF31186202383F3128870
:10556000BFF36F8F1B4CA168E0690B68814214BFC9
:105570001A46002249680B605960A368E1692AB99C
:10558000154AC3E900210B60E3610CE093F90E00BA
:1055900092F90E50A84218D0854216DD5168C3E931
:1055A00000210B605360A5690B4B9D4200D005B9EB
:1055B000E568A3689D4202D0284600F075F9656150
:1055C0003046BDE87040FFF751BE8A42D8D012681D
:1055D000D5E700BFC00A0020D80A0020F8B550EA7D
:1055E000010306460C4603D1FFF7B4FF0020F8BDC7
:1055F000EFF31187202383F31288BFF36F8F124DCF
:10560000124BA8681860FFF78DFEA8681049234662
:105610003246183000F0ECF9AA68537B43F00403DB
:10562000537304463846FFF721FEAB68D3E90A23DB
:10563000B3F1004F08BF002AD8D102F051FA201A66
:1056400020EAE070D3E700BFC00A0020EC0A002087
:10565000A77900000C490D4A38B500244FF40045E5
:105660008C462146C0FB05C100236046FAF748FD81
:10567000C117FFF7B3FF054A47F6FF73C0FB0234BB
:10568000DB0B43EA444038BD3F420F0040420F006D
:1056900038B50446EFF31185202383F31288BFF356
:1056A0006F8F437B5B070FD5183002F0F1F9637BF6
:1056B00023F0040320466373FFF7F2FD29460548F3
:1056C000BDE83840FFF7D0BE85F31188BFF36F8F78
:1056D00038BD00BFFF0A0020014B9868704700BF2B
:1056E000C00A00202DE9F8430446077BEFF311853B
:1056F000202383F31288BFF36F8F437B190705D5EF
:1057000085F31188BFF36F8FBDE8F883D90943F0A3
:10571000080260D14273A36813B1204602F0D4F8A6
:1057200004F1180002F0B4F9A66D04F15808B04570
:1057300011D04FF0000976B1304602F0C5F806F1FD
:10574000180002F0A5F9C6F8AC903046FFF7A8FDA6
:10575000A66DB045EFD1DFF8C480D8F808309C4280
:1057600041D1EFF30589B9F1000918BF4FF00109E4
:10577000D8F818602A4A964200D00EB9D8F80C60C2
:10578000B34202D0304600F08FF82046C8F81460CB
:1057900001F025FB204600F0DFF8B9F1000F02D040
:1057A0002048FFF755FDD8F808309C4231D1EFF37F
:1057B000058373BB227BD20718D42846FFF756FD1A
:1057C000FB07A1D5002383F31188BFF36F8F042358
:1057D000184602DF98E703F07F0343F008034373A2
:1057E00002F06AF897E74FF00009C1E785F31188E6
:1057F000BFF36F8F83F31188BFF36F8F04231846B5
:1058000002DFEFF31180202383F31288BFF36F8F41
:10581000D4E785F31188BFF36F8FD1E7C00A00206A
:10582000D80A002038070020D3B5DDE90667089CB8
:10583000CDE90067FFF7F6FD1CB1034B9B681B69C0
:10584000236002B0D0BD00BFC00A0020044BC01AC4
:10585000044BC0105843044B01221A54704700BF38
:10586000E8070020ABAAAAAAFF0A0020C3897F2B61
:1058700012D80A4B1B6863B1094B90F90E201B68C4
:105880009A4209DB437BDB0606D1064BC31A18BFDD
:10589000012303F0010070470023FAE750000020C5
:1058A000F00A0020D805002070B50E4B0E4C1E7C6F
:1058B00006EB460304EBC3040546204602F0E8F875
:1058C0000A4B002228469A55FFF7D0FF48B1084BF3
:1058D00008491A68013A2046D317BDE8704000F025
:1058E00087B870BDC00A0020E8070020FF0A00202A
:1058F000500000204D58000038B5EFF311852023EB
:1059000083F31288BFF36F8F104B114A9C681068A5
:10591000A04206D1FFF7C8FF85F31188BFF36F8F50
:1059200038BD00211B7C11600A4AD35C002BF3D0E8
:105930002046FFF79BFF0028EED0637BDB0602D1F9
:105940002046FFF727FD2046E4E700BFC00A0020FD
:10595000EC0A0020FF0A0020EFF31181202383F3DB
:105960001288BFF36F8F0A4A136A834207D11B6FF5
:10597000136281F31188BFF36F8F70471346002BBA
:10598000F7D01A6F8242F9D1026F1A67F1E700BFB0
:10599000C00A0020024B1868984208BF00207047D8
:1059A00054000020034B1B680BB9FDF71BBF002000
:1059B000704700BFF40A002030B570B10B4B5B6834
:1059C00098420AD0036843B1D3E90421D0E90445E1
:1059D000121941EB0501C3E90421D0E9003213603B
:1059E0005A600023C0E9003330BD00BF54000020DE
:1059F000B3F1FF3F08BFB2F1FF3F2DE9F84F044676
:105A0000994615461F467AD08160EFF3118820230E
:105A100083F31288BFF36F8FB9F1000FDFF8E4A0B2
:105A200020DBFFF7BFFFDAE90027013549F1000964
:105A30002D1849EBE073C4E90453AD18064643EB57
:105A400007074FF00109FFF7A5FFDFF8BCE0DEF81C
:105A500004A00346EBB9C4E900EACAF80040CEF856
:105A6000044028E0DAE900126FF001035B1A4FF0FE
:105A7000FF3161EB02025B1B62EB0902012B72F149
:105A80000001BCBF01230022C0E904324FF000092D
:105A9000D9E7D3E9041CD4E904208A4270EB0C0B4B
:105AA00024DA891A5A686CEB0000C3E90410C4E9CF
:105AB000003214605C60FFF76DFF84420ED1134B1F
:105AC0001B685BB9B9F1000F02D1FFF76BFF064607
:105AD000304601F0C6FF0021FDF756FE88F311881D
